{
  "_format": "hh-sol-artifact-1",
  "contractName": "AlexToken",
  "sourceName": "contracts/AlexToken.sol",
  "abi": [
    {
      "inputs": [
        {
          "internalType": "uint256",
          "name": "INITIAL_SUPPLY",
          "type": "uint256"
        }
      ],
      "stateMutability": "nonpayable",
      "type": "constructor"
    },
    {
      "inputs": [
        {
          "internalType": "address",
          "name": "spender",
          "type": "address"
        },
        {
          "internalType": "uint256",
          "name": "allowance",
          "type": "uint256"
        },
        {
          "internalType": "uint256",
          "name": "needed",
          "type": "uint256"
        }
      ],
      "name": "ERC20InsufficientAllowance",
      "type": "error"
    },
    {
      "inputs": [
        {
          "internalType": "address",
          "name": "sender",
          "type": "address"
        },
        {
          "internalType": "uint256",
          "name": "balance",
          "type": "uint256"
        },
        {
          "internalType": "uint256",
          "name": "needed",
          "type": "uint256"
        }
      ],
      "name": "ERC20InsufficientBalance",
      "type": "error"
    },
    {
      "inputs": [
        {
          "internalType": "address",
          "name": "approver",
          "type": "address"
        }
      ],
      "name": "ERC20InvalidApprover",
      "type": "error"
    },
    {
      "inputs": [
        {
          "internalType": "address",
          "name": "receiver",
          "type": "address"
        }
      ],
      "name": "ERC20InvalidReceiver",
      "type": "error"
    },
    {
      "inputs": [
        {
          "internalType": "address",
          "name": "sender",
          "type": "address"
        }
      ],
      "name": "ERC20InvalidSender",
      "type": "error"
    },
    {
      "inputs": [
        {
          "internalType": "address",
          "name": "spender",
          "type": "address"
        }
      ],
      "name": "ERC20InvalidSpender",
      "type": "error"
    },
    {
      "inputs": [
        {
          "internalType": "address",
          "name": "owner",
          "type": "address"
        }
      ],
      "name": "OwnableInvalidOwner",
      "type": "error"
    },
    {
      "inputs": [
        {
          "internalType": "address",
          "name": "account",
          "type": "address"
        }
      ],
      "name": "OwnableUnauthorizedAccount",
      "type": "error"
    },
    {
      "anonymous": false,
      "inputs": [
        {
          "indexed": true,
          "internalType": "address",
          "name": "owner",
          "type": "address"
        },
        {
          "indexed": true,
          "internalType": "address",
          "name": "spender",
          "type": "address"
        },
        {
          "indexed": false,
          "internalType": "uint256",
          "name": "value",
          "type": "uint256"
        }
      ],
      "name": "Approval",
      "type": "event"
    },
    {
      "anonymous": false,
      "inputs": [
        {
          "indexed": true,
          "internalType": "address",
          "name": "previousOwner",
          "type": "address"
        },
        {
          "indexed": true,
          "internalType": "address",
          "name": "newOwner",
          "type": "address"
        }
      ],
      "name": "OwnershipTransferred",
      "type": "event"
    },
    {
      "anonymous": false,
      "inputs": [
        {
          "indexed": true,
          "internalType": "address",
          "name": "burner",
          "type": "address"
        },
        {
          "indexed": false,
          "internalType": "uint256",
          "name": "amount",
          "type": "uint256"
        }
      ],
      "name": "TokensBurned",
      "type": "event"
    },
    {
      "anonymous": false,
      "inputs": [
        {
          "indexed": true,
          "internalType": "address",
          "name": "to",
          "type": "address"
        },
        {
          "indexed": false,
          "internalType": "uint256",
          "name": "amount",
          "type": "uint256"
        }
      ],
      "name": "TokensMinted",
      "type": "event"
    },
    {
      "anonymous": false,
      "inputs": [
        {
          "indexed": true,
          "internalType": "address",
          "name": "from",
          "type": "address"
        },
        {
          "indexed": true,
          "internalType": "address",
          "name": "to",
          "type": "address"
        },
        {
          "indexed": false,
          "internalType": "uint256",
          "name": "value",
          "type": "uint256"
        }
      ],
      "name": "Transfer",
      "type": "event"
    },
    {
      "inputs": [],
      "name": "MAX_SUPPLY",
      "outputs": [
        {
          "internalType": "uint256",
          "name": "",
          "type": "uint256"
        }
      ],
      "stateMutability": "view",
      "type": "function"
    },
    {
      "inputs": [
        {
          "internalType": "address",
          "name": "owner",
          "type": "address"
        },
        {
          "internalType": "address",
          "name": "spender",
          "type": "address"
        }
      ],
      "name": "allowance",
      "outputs": [
        {
          "internalType": "uint256",
          "name": "",
          "type": "uint256"
        }
      ],
      "stateMutability": "view",
      "type": "function"
    },
    {
      "inputs": [
        {
          "internalType": "address",
          "name": "spender",
          "type": "address"
        },
        {
          "internalType": "uint256",
          "name": "value",
          "type": "uint256"
        }
      ],
      "name": "approve",
      "outputs": [
        {
          "internalType": "bool",
          "name": "",
          "type": "bool"
        }
      ],
      "stateMutability": "nonpayable",
      "type": "function"
    },
    {
      "inputs": [
        {
          "internalType": "address",
          "name": "account",
          "type": "address"
        }
      ],
      "name": "balanceOf",
      "outputs": [
        {
          "internalType": "uint256",
          "name": "",
          "type": "uint256"
        }
      ],
      "stateMutability": "view",
      "type": "function"
    },
    {
      "inputs": [
        {
          "internalType": "uint256",
          "name": "amount",
          "type": "uint256"
        }
      ],
      "name": "burn",
      "outputs": [],
      "stateMutability": "nonpayable",
      "type": "function"
    },
    {
      "inputs": [],
      "name": "decimals",
      "outputs": [
        {
          "internalType": "uint8",
          "name": "",
          "type": "uint8"
        }
      ],
      "stateMutability": "view",
      "type": "function"
    },
    {
      "inputs": [],
      "name": "getCurrentSupply",
      "outputs": [
        {
          "internalType": "uint256",
          "name": "",
          "type": "uint256"
        }
      ],
      "stateMutability": "view",
      "type": "function"
    },
    {
      "inputs": [
        {
          "internalType": "address",
          "name": "to",
          "type": "address"
        },
        {
          "internalType": "uint256",
          "name": "amount",
          "type": "uint256"
        }
      ],
      "name": "mint",
      "outputs": [],
      "stateMutability": "nonpayable",
      "type": "function"
    },
    {
      "inputs": [],
      "name": "name",
      "outputs": [
        {
          "internalType": "string",
          "name": "",
          "type": "string"
        }
      ],
      "stateMutability": "view",
      "type": "function"
    },
    {
      "inputs": [],
      "name": "owner",
      "outputs": [
        {
          "internalType": "address",
          "name": "",
          "type": "address"
        }
      ],
      "stateMutability": "view",
      "type": "function"
    },
    {
      "inputs": [],
      "name": "renounceOwnership",
      "outputs": [],
      "stateMutability": "nonpayable",
      "type": "function"
    },
    {
      "inputs": [],
      "name": "symbol",
      "outputs": [
        {
          "internalType": "string",
          "name": "",
          "type": "string"
        }
      ],
      "stateMutability": "view",
      "type": "function"
    },
    {
      "inputs": [],
      "name": "totalSupply",
      "outputs": [
        {
          "internalType": "uint256",
          "name": "",
          "type": "uint256"
        }
      ],
      "stateMutability": "view",
      "type": "function"
    },
    {
      "inputs": [
        {
          "internalType": "address",
          "name": "to",
          "type": "address"
        },
        {
          "internalType": "uint256",
          "name": "value",
          "type": "uint256"
        }
      ],
      "name": "transfer",
      "outputs": [
        {
          "internalType": "bool",
          "name": "",
          "type": "bool"
        }
      ],
      "stateMutability": "nonpayable",
      "type": "function"
    },
    {
      "inputs": [
        {
          "internalType": "address",
          "name": "from",
          "type": "address"
        },
        {
          "internalType": "address",
          "name": "to",
          "type": "address"
        },
        {
          "internalType": "uint256",
          "name": "value",
          "type": "uint256"
        }
      ],
      "name": "transferFrom",
      "outputs": [
        {
          "internalType": "bool",
          "name": "",
          "type": "bool"
        }
      ],
      "stateMutability": "nonpayable",
      "type": "function"
    },
    {
      "inputs": [
        {
          "internalType": "address",
          "name": "newOwner",
          "type": "address"
        }
      ],
      "name": "transferOwnership",
      "outputs": [],
      "stateMutability": "nonpayable",
      "type": "function"
    }
  ],
  "bytecode": "0x608060405234801561001057600080fd5b506040516120c73803806120c78339818101604052810190610032919061050e565b336040518060400160405280600a81526020017f416c657820546f6b656e000000000000000000000000000000000000000000008152506040518060400160405280600281526020017f415400000000000000000000000000000000000000000000000000000000000081525081600390816100ae9190610781565b5080600490816100be9190610781565b505050600073ffffffffffffffffffffffffffffffffffffffff168173ffffffffffffffffffffffffffffffffffffffff16036101335760006040517f1e4fbdf700000000000000000000000000000000000000000000000000000000815260040161012a9190610894565b60405180910390fd5b6101428161016060201b60201c565b50610153338261022660201b60201c565b8060068190555050610973565b6000600560009054906101000a900473ffffffffffffffffffffffffffffffffffffffff16905081600560006101000a81548173ffffffffffffffffffffffffffffffffffffffff021916908373ffffffffffffffffffffffffffffffffffffffff1602179055508173ffffffffffffffffffffffffffffffffffffffff168173ffffffffffffffffffffffffffffffffffffffff167f8be0079c531659141344cd1fd0a4f28419497f9722a3daafe3b4186f6b6457e060405160405180910390a35050565b600073ffffffffffffffffffffffffffffffffffffffff168273ffffffffffffffffffffffffffffffffffffffff16036102985760006040517fec442f0500000000000000000000000000000000000000000000000000000000815260040161028f9190610894565b60405180910390fd5b6102aa600083836102ae60201b60201c565b5050565b600073ffffffffffffffffffffffffffffffffffffffff168373ffffffffffffffffffffffffffffffffffffffff16036103005780600260008282546102f491906108de565b925050819055506103d3565b60008060008573ffffffffffffffffffffffffffffffffffffffff1673ffffffffffffffffffffffffffffffffffffffff1681526020019081526020016000205490508181101561038c578381836040517fe450d38c00000000000000000000000000000000000000000000000000000000815260040161038393929190610921565b60405180910390fd5b8181036000808673ffffffffffffffffffffffffffffffffffffffff1673ffffffffffffffffffffffffffffffffffffffff16815260200190815260200160002081905550505b600073ffffffffffffffffffffffffffffffffffffffff168273ffffffffffffffffffffffffffffffffffffffff160361041c5780600260008282540392505081905550610469565b806000808473ffffffffffffffffffffffffffffffffffffffff1673ffffffffffffffffffffffffffffffffffffffff168152602001908152602001600020600082825401925050819055505b8173ffffffffffffffffffffffffffffffffffffffff168373ffffffffffffffffffffffffffffffffffffffff167fddf252ad1be2c89b69c2b068fc378daa952ba7f163c4a11628f55a4df523b3ef836040516104c69190610958565b60405180910390a3505050565b600080fd5b6000819050919050565b6104eb816104d8565b81146104f657600080fd5b50565b600081519050610508816104e2565b92915050565b600060208284031215610524576105236104d3565b5b6000610532848285016104f9565b91505092915050565b600081519050919050565b7f4e487b7100000000000000000000000000000000000000000000000000000000600052604160045260246000fd5b7f4e487b7100000000000000000000000000000000000000000000000000000000600052602260045260246000fd5b600060028204905060018216806105bc57607f821691505b6020821081036105cf576105ce610575565b5b50919050565b60008190508160005260206000209050919050565b60006020601f8301049050919050565b600082821b905092915050565b6000600883026106377fffffffffffffffffffffffffffffffffffffffffffffffffffffffffffffffff826105fa565b61064186836105fa565b95508019841693508086168417925050509392505050565b6000819050919050565b600061067e610679610674846104d8565b610659565b6104d8565b9050919050565b6000819050919050565b61069883610663565b6106ac6106a482610685565b848454610607565b825550505050565b600090565b6106c16106b4565b6106cc81848461068f565b505050565b5b818110156106f0576106e56000826106b9565b6001810190506106d2565b5050565b601f82111561073557610706816105d5565b61070f846105ea565b8101602085101561071e578190505b61073261072a856105ea565b8301826106d1565b50505b505050565b600082821c905092915050565b60006107586000198460080261073a565b1980831691505092915050565b60006107718383610747565b9150826002028217905092915050565b61078a8261053b565b67ffffffffffffffff8111156107a3576107a2610546565b5b6107ad82546105a4565b6107b88282856106f4565b600060209050601f8311600181146107eb57600084156107d9578287015190505b6107e38582610765565b86555061084b565b601f1984166107f9866105d5565b60005b82811015610821578489015182556001820191506020850194506020810190506107fc565b8683101561083e578489015161083a601f891682610747565b8355505b6001600288020188555050505b505050505050565b600073ffffffffffffffffffffffffffffffffffffffff82169050919050565b600061087e82610853565b9050919050565b61088e81610873565b82525050565b60006020820190506108a96000830184610885565b92915050565b7f4e487b7100000000000000000000000000000000000000000000000000000000600052601160045260246000fd5b60006108e9826104d8565b91506108f4836104d8565b925082820190508082111561090c5761090b6108af565b5b92915050565b61091b816104d8565b82525050565b60006060820190506109366000830186610885565b6109436020830185610912565b6109506040830184610912565b949350505050565b600060208201905061096d6000830184610912565b92915050565b611745806109826000396000f3fe608060405234801561001057600080fd5b50600436106101005760003560e01c80634f3e1efc1161009757806395d89b411161006657806395d89b411461028b578063a9059cbb146102a9578063dd62ed3e146102d9578063f2fde38b1461030957610100565b80634f3e1efc1461021557806370a0823114610233578063715018a6146102635780638da5cb5b1461026d57610100565b8063313ce567116100d3578063313ce567146101a157806332cb6b0c146101bf57806340c10f19146101dd57806342966c68146101f957610100565b806306fdde0314610105578063095ea7b31461012357806318160ddd1461015357806323b872dd14610171575b600080fd5b61010d610325565b60405161011a9190611188565b60405180910390f35b61013d60048036038101906101389190611243565b6103b7565b60405161014a919061129e565b60405180910390f35b61015b6103da565b60405161016891906112c8565b60405180910390f35b61018b600480360381019061018691906112e3565b6103e4565b604051610198919061129e565b60405180910390f35b6101a9610413565b6040516101b69190611352565b60405180910390f35b6101c761041c565b6040516101d491906112c8565b60405180910390f35b6101f760048036038101906101f29190611243565b61042b565b005b610213600480360381019061020e919061136d565b6105b5565b005b61021d6106b7565b60405161022a91906112c8565b60405180910390f35b61024d6004803603810190610248919061139a565b6106c1565b60405161025a91906112c8565b60405180910390f35b61026b610709565b005b61027561071d565b60405161028291906113d6565b60405180910390f35b610293610747565b6040516102a09190611188565b60405180910390f35b6102c360048036038101906102be9190611243565b6107d9565b6040516102d0919061129e565b60405180910390f35b6102f360048036038101906102ee91906113f1565b6107fc565b60405161030091906112c8565b60405180910390f35b610323600480360381019061031e919061139a565b610883565b005b60606003805461033490611460565b80601f016020809104026020016040519081016040528092919081815260200182805461036090611460565b80156103ad5780601f10610382576101008083540402835291602001916103ad565b820191906000526020600020905b81548152906001019060200180831161039057829003601f168201915b5050505050905090565b6000806103c2610909565b90506103cf818585610911565b600191505092915050565b6000600254905090565b6000806103ef610909565b90506103fc858285610923565b6104078585856109b7565b60019150509392505050565b60006012905090565b6a084595161401484a00000081565b610433610aab565b6a084595161401484a0000008160065461044d91906114c0565b111561048e576040517f08c379a000000000000000000000000000000000000000000000000000000000815260040161048590611540565b60405180910390fd5b600073ffffffffffffffffffffffffffffffffffffffff168273ffffffffffffffffffffffffffffffffffffffff16036104fd576040517f08c379a00000000000000000000000000000000000000000000000000000000081526004016104f4906115ac565b60405180910390fd5b60008111610540576040517f08c379a000000000000000000000000000000000000000000000000000000000815260040161053790611618565b60405180910390fd5b61054a8282610b32565b806006600082825461055c91906114c0565b925050819055508173ffffffffffffffffffffffffffffffffffffffff167f3f2c9d57c068687834f0de942a9babb9e5acab57d516d3480a3c16ee165a4273826040516105a991906112c8565b60405180910390a25050565b600081116105f8576040517f08c379a00000000000000000000000000000000000000000000000000000000081526004016105ef90611618565b60405180910390fd5b80610602336106c1565b1015610643576040517f08c379a000000000000000000000000000000000000000000000000000000000815260040161063a90611684565b60405180910390fd5b61064d3382610bb4565b806006600082825461065f91906116a4565b925050819055503373ffffffffffffffffffffffffffffffffffffffff167ffd38818f5291bf0bb3a2a48aadc06ba8757865d1dabd804585338aab3009dcb6826040516106ac91906112c8565b60405180910390a250565b6000600654905090565b60008060008373ffffffffffffffffffffffffffffffffffffffff1673ffffffffffffffffffffffffffffffffffffffff168152602001908152602001600020549050919050565b610711610aab565b61071b6000610c36565b565b6000600560009054906101000a900473ffffffffffffffffffffffffffffffffffffffff16905090565b60606004805461075690611460565b80601f016020809104026020016040519081016040528092919081815260200182805461078290611460565b80156107cf5780601f106107a4576101008083540402835291602001916107cf565b820191906000526020600020905b8154815290600101906020018083116107b257829003601f168201915b5050505050905090565b6000806107e4610909565b90506107f18185856109b7565b600191505092915050565b6000600160008473ffffffffffffffffffffffffffffffffffffffff1673ffffffffffffffffffffffffffffffffffffffff16815260200190815260200160002060008373ffffffffffffffffffffffffffffffffffffffff1673ffffffffffffffffffffffffffffffffffffffff16815260200190815260200160002054905092915050565b61088b610aab565b600073ffffffffffffffffffffffffffffffffffffffff168173ffffffffffffffffffffffffffffffffffffffff16036108fd5760006040517f1e4fbdf70000000000000000000000000000000000000000000000000000000081526004016108f491906113d6565b60405180910390fd5b61090681610c36565b50565b600033905090565b61091e8383836001610cfc565b505050565b600061092f84846107fc565b90507fffffffffffffffffffffffffffffffffffffffffffffffffffffffffffffffff81146109b157818110156109a1578281836040517ffb8f41b2000000000000000000000000000000000000000000000000000000008152600401610998939291906116d8565b60405180910390fd5b6109b084848484036000610cfc565b5b50505050565b600073ffffffffffffffffffffffffffffffffffffffff168373ffffffffffffffffffffffffffffffffffffffff1603610a295760006040517f96c6fd1e000000000000000000000000000000000000000000000000000000008152600401610a2091906113d6565b60405180910390fd5b600073ffffffffffffffffffffffffffffffffffffffff168273ffffffffffffffffffffffffffffffffffffffff1603610a9b5760006040517fec442f05000000000000000000000000000000000000000000000000000000008152600401610a9291906113d6565b60405180910390fd5b610aa6838383610ed3565b505050565b610ab3610909565b73ffffffffffffffffffffffffffffffffffffffff16610ad161071d565b73ffffffffffffffffffffffffffffffffffffffff1614610b3057610af4610909565b6040517f118cdaa7000000000000000000000000000000000000000000000000000000008152600401610b2791906113d6565b60405180910390fd5b565b600073ffffffffffffffffffffffffffffffffffffffff168273ffffffffffffffffffffffffffffffffffffffff1603610ba45760006040517fec442f05000000000000000000000000000000000000000000000000000000008152600401610b9b91906113d6565b60405180910390fd5b610bb060008383610ed3565b5050565b600073ffffffffffffffffffffffffffffffffffffffff168273ffffffffffffffffffffffffffffffffffffffff1603610c265760006040517f96c6fd1e000000000000000000000000000000000000000000000000000000008152600401610c1d91906113d6565b60405180910390fd5b610c3282600083610ed3565b5050565b6000600560009054906101000a900473ffffffffffffffffffffffffffffffffffffffff16905081600560006101000a81548173ffffffffffffffffffffffffffffffffffffffff021916908373ffffffffffffffffffffffffffffffffffffffff1602179055508173ffffffffffffffffffffffffffffffffffffffff168173ffffffffffffffffffffffffffffffffffffffff167f8be0079c531659141344cd1fd0a4f28419497f9722a3daafe3b4186f6b6457e060405160405180910390a35050565b600073ffffffffffffffffffffffffffffffffffffffff168473ffffffffffffffffffffffffffffffffffffffff1603610d6e5760006040517fe602df05000000000000000000000000000000000000000000000000000000008152600401610d6591906113d6565b60405180910390fd5b600073ffffffffffffffffffffffffffffffffffffffff168373ffffffffffffffffffffffffffffffffffffffff1603610de05760006040517f94280d62000000000000000000000000000000000000000000000000000000008152600401610dd791906113d6565b60405180910390fd5b81600160008673ffffffffffffffffffffffffffffffffffffffff1673ffffffffffffffffffffffffffffffffffffffff16815260200190815260200160002060008573ffffffffffffffffffffffffffffffffffffffff1673ffffffffffffffffffffffffffffffffffffffff168152602001908152602001600020819055508015610ecd578273ffffffffffffffffffffffffffffffffffffffff168473ffffffffffffffffffffffffffffffffffffffff167f8c5be1e5ebec7d5bd14f71427d1e84f3dd0314c0f7b2291e5b200ac8c7c3b92584604051610ec491906112c8565b60405180910390a35b50505050565b600073ffffffffffffffffffffffffffffffffffffffff168373ffffffffffffffffffffffffffffffffffffffff1603610f25578060026000828254610f1991906114c0565b92505081905550610ff8565b60008060008573ffffffffffffffffffffffffffffffffffffffff1673ffffffffffffffffffffffffffffffffffffffff16815260200190815260200160002054905081811015610fb1578381836040517fe450d38c000000000000000000000000000000000000000000000000000000008152600401610fa8939291906116d8565b60405180910390fd5b8181036000808673ffffffffffffffffffffffffffffffffffffffff1673ffffffffffffffffffffffffffffffffffffffff16815260200190815260200160002081905550505b600073ffffffffffffffffffffffffffffffffffffffff168273ffffffffffffffffffffffffffffffffffffffff1603611041578060026000828254039250508190555061108e565b806000808473ffffffffffffffffffffffffffffffffffffffff1673ffffffffffffffffffffffffffffffffffffffff168152602001908152602001600020600082825401925050819055505b8173ffffffffffffffffffffffffffffffffffffffff168373ffffffffffffffffffffffffffffffffffffffff167fddf252ad1be2c89b69c2b068fc378daa952ba7f163c4a11628f55a4df523b3ef836040516110eb91906112c8565b60405180910390a3505050565b600081519050919050565b600082825260208201905092915050565b60005b83811015611132578082015181840152602081019050611117565b60008484015250505050565b6000601f19601f8301169050919050565b600061115a826110f8565b6111648185611103565b9350611174818560208601611114565b61117d8161113e565b840191505092915050565b600060208201905081810360008301526111a2818461114f565b905092915050565b600080fd5b600073ffffffffffffffffffffffffffffffffffffffff82169050919050565b60006111da826111af565b9050919050565b6111ea816111cf565b81146111f557600080fd5b50565b600081359050611207816111e1565b92915050565b6000819050919050565b6112208161120d565b811461122b57600080fd5b50565b60008135905061123d81611217565b92915050565b6000806040838503121561125a576112596111aa565b5b6000611268858286016111f8565b92505060206112798582860161122e565b9150509250929050565b60008115159050919050565b61129881611283565b82525050565b60006020820190506112b3600083018461128f565b92915050565b6112c28161120d565b82525050565b60006020820190506112dd60008301846112b9565b92915050565b6000806000606084860312156112fc576112fb6111aa565b5b600061130a868287016111f8565b935050602061131b868287016111f8565b925050604061132c8682870161122e565b9150509250925092565b600060ff82169050919050565b61134c81611336565b82525050565b60006020820190506113676000830184611343565b92915050565b600060208284031215611383576113826111aa565b5b60006113918482850161122e565b91505092915050565b6000602082840312156113b0576113af6111aa565b5b60006113be848285016111f8565b91505092915050565b6113d0816111cf565b82525050565b60006020820190506113eb60008301846113c7565b92915050565b60008060408385031215611408576114076111aa565b5b6000611416858286016111f8565b9250506020611427858286016111f8565b9150509250929050565b7f4e487b7100000000000000000000000000000000000000000000000000000000600052602260045260246000fd5b6000600282049050600182168061147857607f821691505b60208210810361148b5761148a611431565b5b50919050565b7f4e487b7100000000000000000000000000000000000000000000000000000000600052601160045260246000fd5b60006114cb8261120d565b91506114d68361120d565b92508282019050808211156114ee576114ed611491565b5b92915050565b7f576f756c6420657863656564206d617820737570706c79000000000000000000600082015250565b600061152a601783611103565b9150611535826114f4565b602082019050919050565b600060208201905081810360008301526115598161151d565b9050919050565b7f43616e6e6f74206d696e7420746f207a65726f20616464726573730000000000600082015250565b6000611596601b83611103565b91506115a182611560565b602082019050919050565b600060208201905081810360008301526115c581611589565b9050919050565b7f416d6f756e74206d7573742062652067726561746572207468616e2030000000600082015250565b6000611602601d83611103565b915061160d826115cc565b602082019050919050565b60006020820190508181036000830152611631816115f5565b9050919050565b7f496e73756666696369656e742062616c616e6365000000000000000000000000600082015250565b600061166e601483611103565b915061167982611638565b602082019050919050565b6000602082019050818103600083015261169d81611661565b9050919050565b60006116af8261120d565b91506116ba8361120d565b92508282039050818111156116d2576116d1611491565b5b92915050565b60006060820190506116ed60008301866113c7565b6116fa60208301856112b9565b61170760408301846112b9565b94935050505056fea264697066735822122069427b3c71da343354bb09c17238ca10f14df13e66ac622197302b91c2ba2b9664736f6c634300081b0033",
  "linkReferences": {},
  "deployedLinkReferences": {}
}