{
  "_format": "hh-sol-artifact-1",
  "contractName": "AlexToken",
  "sourceName": "contracts/AlexToken.sol",
  "abi": [
    {
      "inputs": [
        {
          "internalType": "uint256",
          "name": "INITIAL_SUPPLY",
          "type": "uint256"
        }
      ],
      "stateMutability": "nonpayable",
      "type": "constructor"
    },
    {
      "inputs": [
        {
          "internalType": "address",
          "name": "spender",
          "type": "address"
        },
        {
          "internalType": "uint256",
          "name": "allowance",
          "type": "uint256"
        },
        {
          "internalType": "uint256",
          "name": "needed",
          "type": "uint256"
        }
      ],
      "name": "ERC20InsufficientAllowance",
      "type": "error"
    },
    {
      "inputs": [
        {
          "internalType": "address",
          "name": "sender",
          "type": "address"
        },
        {
          "internalType": "uint256",
          "name": "balance",
          "type": "uint256"
        },
        {
          "internalType": "uint256",
          "name": "needed",
          "type": "uint256"
        }
      ],
      "name": "ERC20InsufficientBalance",
      "type": "error"
    },
    {
      "inputs": [
        {
          "internalType": "address",
          "name": "approver",
          "type": "address"
        }
      ],
      "name": "ERC20InvalidApprover",
      "type": "error"
    },
    {
      "inputs": [
        {
          "internalType": "address",
          "name": "receiver",
          "type": "address"
        }
      ],
      "name": "ERC20InvalidReceiver",
      "type": "error"
    },
    {
      "inputs": [
        {
          "internalType": "address",
          "name": "sender",
          "type": "address"
        }
      ],
      "name": "ERC20InvalidSender",
      "type": "error"
    },
    {
      "inputs": [
        {
          "internalType": "address",
          "name": "spender",
          "type": "address"
        }
      ],
      "name": "ERC20InvalidSpender",
      "type": "error"
    },
    {
      "anonymous": false,
      "inputs": [
        {
          "indexed": true,
          "internalType": "address",
          "name": "owner",
          "type": "address"
        },
        {
          "indexed": true,
          "internalType": "address",
          "name": "spender",
          "type": "address"
        },
        {
          "indexed": false,
          "internalType": "uint256",
          "name": "value",
          "type": "uint256"
        }
      ],
      "name": "Approval",
      "type": "event"
    },
    {
      "anonymous": false,
      "inputs": [
        {
          "indexed": true,
          "internalType": "address",
          "name": "burner",
          "type": "address"
        },
        {
          "indexed": false,
          "internalType": "uint256",
          "name": "amount",
          "type": "uint256"
        }
      ],
      "name": "TokensBurned",
      "type": "event"
    },
    {
      "anonymous": false,
      "inputs": [
        {
          "indexed": true,
          "internalType": "address",
          "name": "to",
          "type": "address"
        },
        {
          "indexed": false,
          "internalType": "uint256",
          "name": "amount",
          "type": "uint256"
        }
      ],
      "name": "TokensMinted",
      "type": "event"
    },
    {
      "anonymous": false,
      "inputs": [
        {
          "indexed": true,
          "internalType": "address",
          "name": "from",
          "type": "address"
        },
        {
          "indexed": true,
          "internalType": "address",
          "name": "to",
          "type": "address"
        },
        {
          "indexed": false,
          "internalType": "uint256",
          "name": "value",
          "type": "uint256"
        }
      ],
      "name": "Transfer",
      "type": "event"
    },
    {
      "inputs": [],
      "name": "MAX_SUPPLY",
      "outputs": [
        {
          "internalType": "uint256",
          "name": "",
          "type": "uint256"
        }
      ],
      "stateMutability": "view",
      "type": "function"
    },
    {
      "inputs": [
        {
          "internalType": "address",
          "name": "owner",
          "type": "address"
        },
        {
          "internalType": "address",
          "name": "spender",
          "type": "address"
        }
      ],
      "name": "allowance",
      "outputs": [
        {
          "internalType": "uint256",
          "name": "",
          "type": "uint256"
        }
      ],
      "stateMutability": "view",
      "type": "function"
    },
    {
      "inputs": [
        {
          "internalType": "address",
          "name": "spender",
          "type": "address"
        },
        {
          "internalType": "uint256",
          "name": "value",
          "type": "uint256"
        }
      ],
      "name": "approve",
      "outputs": [
        {
          "internalType": "bool",
          "name": "",
          "type": "bool"
        }
      ],
      "stateMutability": "nonpayable",
      "type": "function"
    },
    {
      "inputs": [
        {
          "internalType": "address",
          "name": "account",
          "type": "address"
        }
      ],
      "name": "balanceOf",
      "outputs": [
        {
          "internalType": "uint256",
          "name": "",
          "type": "uint256"
        }
      ],
      "stateMutability": "view",
      "type": "function"
    },
    {
      "inputs": [
        {
          "internalType": "uint256",
          "name": "amount",
          "type": "uint256"
        }
      ],
      "name": "burn",
      "outputs": [],
      "stateMutability": "nonpayable",
      "type": "function"
    },
    {
      "inputs": [],
      "name": "decimals",
      "outputs": [
        {
          "internalType": "uint8",
          "name": "",
          "type": "uint8"
        }
      ],
      "stateMutability": "view",
      "type": "function"
    },
    {
      "inputs": [],
      "name": "getCurrentSupply",
      "outputs": [
        {
          "internalType": "uint256",
          "name": "",
          "type": "uint256"
        }
      ],
      "stateMutability": "view",
      "type": "function"
    },
    {
      "inputs": [
        {
          "internalType": "address",
          "name": "to",
          "type": "address"
        },
        {
          "internalType": "uint256",
          "name": "amount",
          "type": "uint256"
        }
      ],
      "name": "mint",
      "outputs": [],
      "stateMutability": "nonpayable",
      "type": "function"
    },
    {
      "inputs": [],
      "name": "name",
      "outputs": [
        {
          "internalType": "string",
          "name": "",
          "type": "string"
        }
      ],
      "stateMutability": "view",
      "type": "function"
    },
    {
      "inputs": [],
      "name": "symbol",
      "outputs": [
        {
          "internalType": "string",
          "name": "",
          "type": "string"
        }
      ],
      "stateMutability": "view",
      "type": "function"
    },
    {
      "inputs": [],
      "name": "totalSupply",
      "outputs": [
        {
          "internalType": "uint256",
          "name": "",
          "type": "uint256"
        }
      ],
      "stateMutability": "view",
      "type": "function"
    },
    {
      "inputs": [
        {
          "internalType": "address",
          "name": "to",
          "type": "address"
        },
        {
          "internalType": "uint256",
          "name": "value",
          "type": "uint256"
        }
      ],
      "name": "transfer",
      "outputs": [
        {
          "internalType": "bool",
          "name": "",
          "type": "bool"
        }
      ],
      "stateMutability": "nonpayable",
      "type": "function"
    },
    {
      "inputs": [
        {
          "internalType": "address",
          "name": "from",
          "type": "address"
        },
        {
          "internalType": "address",
          "name": "to",
          "type": "address"
        },
        {
          "internalType": "uint256",
          "name": "value",
          "type": "uint256"
        }
      ],
      "name": "transferFrom",
      "outputs": [
        {
          "internalType": "bool",
          "name": "",
          "type": "bool"
        }
      ],
      "stateMutability": "nonpayable",
      "type": "function"
    }
  ],
  "bytecode": "0x608060405233600560006101000a81548173ffffffffffffffffffffffffffffffffffffffff021916908373ffffffffffffffffffffffffffffffffffffffff16021790555034801561005157600080fd5b50604051611ae3380380611ae383398181016040528101906100739190610447565b6040518060400160405280600a81526020017f416c657820546f6b656e000000000000000000000000000000000000000000008152506040518060400160405280600281526020017f415400000000000000000000000000000000000000000000000000000000000081525081600390816100ee91906106ba565b5080600490816100fe91906106ba565b50505033600560006101000a81548173ffffffffffffffffffffffffffffffffffffffff021916908373ffffffffffffffffffffffffffffffffffffffff160217905550610152338261015f60201b60201c565b80600681905550506108ac565b600073ffffffffffffffffffffffffffffffffffffffff168273ffffffffffffffffffffffffffffffffffffffff16036101d15760006040517fec442f050000000000000000000000000000000000000000000000000000000081526004016101c891906107cd565b60405180910390fd5b6101e3600083836101e760201b60201c565b5050565b600073ffffffffffffffffffffffffffffffffffffffff168373ffffffffffffffffffffffffffffffffffffffff160361023957806002600082825461022d9190610817565b9250508190555061030c565b60008060008573ffffffffffffffffffffffffffffffffffffffff1673ffffffffffffffffffffffffffffffffffffffff168152602001908152602001600020549050818110156102c5578381836040517fe450d38c0000000000000000000000000000000000000000000000000000000081526004016102bc9392919061085a565b60405180910390fd5b8181036000808673ffffffffffffffffffffffffffffffffffffffff1673ffffffffffffffffffffffffffffffffffffffff16815260200190815260200160002081905550505b600073ffffffffffffffffffffffffffffffffffffffff168273ffffffffffffffffffffffffffffffffffffffff160361035557806002600082825403925050819055506103a2565b806000808473ffffffffffffffffffffffffffffffffffffffff1673ffffffffffffffffffffffffffffffffffffffff168152602001908152602001600020600082825401925050819055505b8173ffffffffffffffffffffffffffffffffffffffff168373ffffffffffffffffffffffffffffffffffffffff167fddf252ad1be2c89b69c2b068fc378daa952ba7f163c4a11628f55a4df523b3ef836040516103ff9190610891565b60405180910390a3505050565b600080fd5b6000819050919050565b61042481610411565b811461042f57600080fd5b50565b6000815190506104418161041b565b92915050565b60006020828403121561045d5761045c61040c565b5b600061046b84828501610432565b91505092915050565b600081519050919050565b7f4e487b7100000000000000000000000000000000000000000000000000000000600052604160045260246000fd5b7f4e487b7100000000000000000000000000000000000000000000000000000000600052602260045260246000fd5b600060028204905060018216806104f557607f821691505b602082108103610508576105076104ae565b5b50919050565b60008190508160005260206000209050919050565b60006020601f8301049050919050565b600082821b905092915050565b6000600883026105707fffffffffffffffffffffffffffffffffffffffffffffffffffffffffffffffff82610533565b61057a8683610533565b95508019841693508086168417925050509392505050565b6000819050919050565b60006105b76105b26105ad84610411565b610592565b610411565b9050919050565b6000819050919050565b6105d18361059c565b6105e56105dd826105be565b848454610540565b825550505050565b600090565b6105fa6105ed565b6106058184846105c8565b505050565b5b818110156106295761061e6000826105f2565b60018101905061060b565b5050565b601f82111561066e5761063f8161050e565b61064884610523565b81016020851015610657578190505b61066b61066385610523565b83018261060a565b50505b505050565b600082821c905092915050565b600061069160001984600802610673565b1980831691505092915050565b60006106aa8383610680565b9150826002028217905092915050565b6106c382610474565b67ffffffffffffffff8111156106dc576106db61047f565b5b6106e682546104dd565b6106f182828561062d565b600060209050601f8311600181146107245760008415610712578287015190505b61071c858261069e565b865550610784565b601f1984166107328661050e565b60005b8281101561075a57848901518255600182019150602085019450602081019050610735565b868310156107775784890151610773601f891682610680565b8355505b6001600288020188555050505b505050505050565b600073ffffffffffffffffffffffffffffffffffffffff82169050919050565b60006107b78261078c565b9050919050565b6107c7816107ac565b82525050565b60006020820190506107e260008301846107be565b92915050565b7f4e487b7100000000000000000000000000000000000000000000000000000000600052601160045260246000fd5b600061082282610411565b915061082d83610411565b9250828201905080821115610845576108446107e8565b5b92915050565b61085481610411565b82525050565b600060608201905061086f60008301866107be565b61087c602083018561084b565b610889604083018461084b565b949350505050565b60006020820190506108a6600083018461084b565b92915050565b611228806108bb6000396000f3fe608060405234801561001057600080fd5b50600436106100cf5760003560e01c806340c10f191161008c57806370a082311161006657806370a082311461020257806395d89b4114610232578063a9059cbb14610250578063dd62ed3e14610280576100cf565b806340c10f19146101ac57806342966c68146101c85780634f3e1efc146101e4576100cf565b806306fdde03146100d4578063095ea7b3146100f257806318160ddd1461012257806323b872dd14610140578063313ce5671461017057806332cb6b0c1461018e575b600080fd5b6100dc6102b0565b6040516100e99190610dbd565b60405180910390f35b61010c60048036038101906101079190610e78565b610342565b6040516101199190610ed3565b60405180910390f35b61012a610365565b6040516101379190610efd565b60405180910390f35b61015a60048036038101906101559190610f18565b61036f565b6040516101679190610ed3565b60405180910390f35b61017861039e565b6040516101859190610f87565b60405180910390f35b6101966103a7565b6040516101a39190610efd565b60405180910390f35b6101c660048036038101906101c19190610e78565b6103b6565b005b6101e260048036038101906101dd9190610fa2565b6104a2565b005b6101ec6104fd565b6040516101f99190610efd565b60405180910390f35b61021c60048036038101906102179190610fcf565b610507565b6040516102299190610efd565b60405180910390f35b61023a61054f565b6040516102479190610dbd565b60405180910390f35b61026a60048036038101906102659190610e78565b6105e1565b6040516102779190610ed3565b60405180910390f35b61029a60048036038101906102959190610ffc565b610604565b6040516102a79190610efd565b60405180910390f35b6060600380546102bf9061106b565b80601f01602080910402602001604051908101604052809291908181526020018280546102eb9061106b565b80156103385780601f1061030d57610100808354040283529160200191610338565b820191906000526020600020905b81548152906001019060200180831161031b57829003601f168201915b5050505050905090565b60008061034d61068b565b905061035a818585610693565b600191505092915050565b6000600254905090565b60008061037a61068b565b90506103878582856106a5565b610392858585610739565b60019150509392505050565b60006012905090565b6a084595161401484a00000081565b600560009054906101000a900473ffffffffffffffffffffffffffffffffffffffff1673ffffffffffffffffffffffffffffffffffffffff163373ffffffffffffffffffffffffffffffffffffffff1614610446576040517f08c379a000000000000000000000000000000000000000000000000000000000815260040161043d9061110e565b60405180910390fd5b610450828261082d565b8173ffffffffffffffffffffffffffffffffffffffff167f3f2c9d57c068687834f0de942a9babb9e5acab57d516d3480a3c16ee165a4273826040516104969190610efd565b60405180910390a25050565b6104ac33826108af565b3373ffffffffffffffffffffffffffffffffffffffff167ffd38818f5291bf0bb3a2a48aadc06ba8757865d1dabd804585338aab3009dcb6826040516104f29190610efd565b60405180910390a250565b6000600654905090565b60008060008373ffffffffffffffffffffffffffffffffffffffff1673ffffffffffffffffffffffffffffffffffffffff168152602001908152602001600020549050919050565b60606004805461055e9061106b565b80601f016020809104026020016040519081016040528092919081815260200182805461058a9061106b565b80156105d75780601f106105ac576101008083540402835291602001916105d7565b820191906000526020600020905b8154815290600101906020018083116105ba57829003601f168201915b5050505050905090565b6000806105ec61068b565b90506105f9818585610739565b600191505092915050565b6000600160008473ffffffffffffffffffffffffffffffffffffffff1673ffffffffffffffffffffffffffffffffffffffff16815260200190815260200160002060008373ffffffffffffffffffffffffffffffffffffffff1673ffffffffffffffffffffffffffffffffffffffff16815260200190815260200160002054905092915050565b600033905090565b6106a08383836001610931565b505050565b60006106b18484610604565b90507fffffffffffffffffffffffffffffffffffffffffffffffffffffffffffffffff81146107335781811015610723578281836040517ffb8f41b200000000000000000000000000000000000000000000000000000000815260040161071a9392919061113d565b60405180910390fd5b61073284848484036000610931565b5b50505050565b600073ffffffffffffffffffffffffffffffffffffffff168373ffffffffffffffffffffffffffffffffffffffff16036107ab5760006040517f96c6fd1e0000000000000000000000000000000000000000000000000000000081526004016107a29190611174565b60405180910390fd5b600073ffffffffffffffffffffffffffffffffffffffff168273ffffffffffffffffffffffffffffffffffffffff160361081d5760006040517fec442f050000000000000000000000000000000000000000000000000000000081526004016108149190611174565b60405180910390fd5b610828838383610b08565b505050565b600073ffffffffffffffffffffffffffffffffffffffff168273ffffffffffffffffffffffffffffffffffffffff160361089f5760006040517fec442f050000000000000000000000000000000000000000000000000000000081526004016108969190611174565b60405180910390fd5b6108ab60008383610b08565b5050565b600073ffffffffffffffffffffffffffffffffffffffff168273ffffffffffffffffffffffffffffffffffffffff16036109215760006040517f96c6fd1e0000000000000000000000000000000000000000000000000000000081526004016109189190611174565b60405180910390fd5b61092d82600083610b08565b5050565b600073ffffffffffffffffffffffffffffffffffffffff168473ffffffffffffffffffffffffffffffffffffffff16036109a35760006040517fe602df0500000000000000000000000000000000000000000000000000000000815260040161099a9190611174565b60405180910390fd5b600073ffffffffffffffffffffffffffffffffffffffff168373ffffffffffffffffffffffffffffffffffffffff1603610a155760006040517f94280d62000000000000000000000000000000000000000000000000000000008152600401610a0c9190611174565b60405180910390fd5b81600160008673ffffffffffffffffffffffffffffffffffffffff1673ffffffffffffffffffffffffffffffffffffffff16815260200190815260200160002060008573ffffffffffffffffffffffffffffffffffffffff1673ffffffffffffffffffffffffffffffffffffffff168152602001908152602001600020819055508015610b02578273ffffffffffffffffffffffffffffffffffffffff168473ffffffffffffffffffffffffffffffffffffffff167f8c5be1e5ebec7d5bd14f71427d1e84f3dd0314c0f7b2291e5b200ac8c7c3b92584604051610af99190610efd565b60405180910390a35b50505050565b600073ffffffffffffffffffffffffffffffffffffffff168373ffffffffffffffffffffffffffffffffffffffff1603610b5a578060026000828254610b4e91906111be565b92505081905550610c2d565b60008060008573ffffffffffffffffffffffffffffffffffffffff1673ffffffffffffffffffffffffffffffffffffffff16815260200190815260200160002054905081811015610be6578381836040517fe450d38c000000000000000000000000000000000000000000000000000000008152600401610bdd9392919061113d565b60405180910390fd5b8181036000808673ffffffffffffffffffffffffffffffffffffffff1673ffffffffffffffffffffffffffffffffffffffff16815260200190815260200160002081905550505b600073ffffffffffffffffffffffffffffffffffffffff168273ffffffffffffffffffffffffffffffffffffffff1603610c765780600260008282540392505081905550610cc3565b806000808473ffffffffffffffffffffffffffffffffffffffff1673ffffffffffffffffffffffffffffffffffffffff168152602001908152602001600020600082825401925050819055505b8173ffffffffffffffffffffffffffffffffffffffff168373ffffffffffffffffffffffffffffffffffffffff167fddf252ad1be2c89b69c2b068fc378daa952ba7f163c4a11628f55a4df523b3ef83604051610d209190610efd565b60405180910390a3505050565b600081519050919050565b600082825260208201905092915050565b60005b83811015610d67578082015181840152602081019050610d4c565b60008484015250505050565b6000601f19601f8301169050919050565b6000610d8f82610d2d565b610d998185610d38565b9350610da9818560208601610d49565b610db281610d73565b840191505092915050565b60006020820190508181036000830152610dd78184610d84565b905092915050565b600080fd5b600073ffffffffffffffffffffffffffffffffffffffff82169050919050565b6000610e0f82610de4565b9050919050565b610e1f81610e04565b8114610e2a57600080fd5b50565b600081359050610e3c81610e16565b92915050565b6000819050919050565b610e5581610e42565b8114610e6057600080fd5b50565b600081359050610e7281610e4c565b92915050565b60008060408385031215610e8f57610e8e610ddf565b5b6000610e9d85828601610e2d565b9250506020610eae85828601610e63565b9150509250929050565b60008115159050919050565b610ecd81610eb8565b82525050565b6000602082019050610ee86000830184610ec4565b92915050565b610ef781610e42565b82525050565b6000602082019050610f126000830184610eee565b92915050565b600080600060608486031215610f3157610f30610ddf565b5b6000610f3f86828701610e2d565b9350506020610f5086828701610e2d565b9250506040610f6186828701610e63565b9150509250925092565b600060ff82169050919050565b610f8181610f6b565b82525050565b6000602082019050610f9c6000830184610f78565b92915050565b600060208284031215610fb857610fb7610ddf565b5b6000610fc684828501610e63565b91505092915050565b600060208284031215610fe557610fe4610ddf565b5b6000610ff384828501610e2d565b91505092915050565b6000806040838503121561101357611012610ddf565b5b600061102185828601610e2d565b925050602061103285828601610e2d565b9150509250929050565b7f4e487b7100000000000000000000000000000000000000000000000000000000600052602260045260246000fd5b6000600282049050600182168061108357607f821691505b6020821081036110965761109561103c565b5b50919050565b7f4f6e6c79206f776e65722063616e2063616c6c20746869732066756e6374696f60008201527f6e00000000000000000000000000000000000000000000000000000000000000602082015250565b60006110f8602183610d38565b91506111038261109c565b604082019050919050565b60006020820190508181036000830152611127816110eb565b9050919050565b61113781610e04565b82525050565b6000606082019050611152600083018661112e565b61115f6020830185610eee565b61116c6040830184610eee565b949350505050565b6000602082019050611189600083018461112e565b92915050565b7f4e487b7100000000000000000000000000000000000000000000000000000000600052601160045260246000fd5b60006111c982610e42565b91506111d483610e42565b92508282019050808211156111ec576111eb61118f565b5b9291505056fea2646970667358221220738dd5487713409e90c7f1466f387e3c0983c85649db40d052e100eed444aada64736f6c634300081b0033",
  "linkReferences": {},
  "deployedLinkReferences": {}
}