{
  "_format": "hh-sol-artifact-1",
  "contractName": "MarketPlace",
  "sourceName": "contracts/MarketPlace.sol",
  "abi": [
    {
      "inputs": [
        {
          "internalType": "uint256",
          "name": "_feePercent",
          "type": "uint256"
        }
      ],
      "stateMutability": "nonpayable",
      "type": "constructor"
    },
    {
      "anonymous": false,
      "inputs": [
        {
          "indexed": false,
          "internalType": "uint256",
          "name": "itemId",
          "type": "uint256"
        },
        {
          "indexed": true,
          "internalType": "address",
          "name": "nft",
          "type": "address"
        },
        {
          "indexed": false,
          "internalType": "uint256",
          "name": "tokenId",
          "type": "uint256"
        },
        {
          "indexed": false,
          "internalType": "uint256",
          "name": "price",
          "type": "uint256"
        },
        {
          "indexed": true,
          "internalType": "address",
          "name": "seller",
          "type": "address"
        },
        {
          "indexed": true,
          "internalType": "address",
          "name": "buyer",
          "type": "address"
        }
      ],
      "name": "Bought",
      "type": "event"
    },
    {
      "anonymous": false,
      "inputs": [
        {
          "indexed": false,
          "internalType": "uint256",
          "name": "itemId",
          "type": "uint256"
        },
        {
          "indexed": true,
          "internalType": "address",
          "name": "nft",
          "type": "address"
        },
        {
          "indexed": false,
          "internalType": "uint256",
          "name": "tokenId",
          "type": "uint256"
        },
        {
          "indexed": false,
          "internalType": "uint256",
          "name": "price",
          "type": "uint256"
        },
        {
          "indexed": true,
          "internalType": "address",
          "name": "seller",
          "type": "address"
        }
      ],
      "name": "Offered",
      "type": "event"
    },
    {
      "inputs": [
        {
          "internalType": "contract IERC721",
          "name": "_nft",
          "type": "address"
        },
        {
          "internalType": "uint256",
          "name": "_tokenId",
          "type": "uint256"
        },
        {
          "internalType": "uint256",
          "name": "_price",
          "type": "uint256"
        }
      ],
      "name": "createItem",
      "outputs": [],
      "stateMutability": "nonpayable",
      "type": "function"
    },
    {
      "inputs": [],
      "name": "feeAccount",
      "outputs": [
        {
          "internalType": "address payable",
          "name": "",
          "type": "address"
        }
      ],
      "stateMutability": "view",
      "type": "function"
    },
    {
      "inputs": [],
      "name": "feePercent",
      "outputs": [
        {
          "internalType": "uint256",
          "name": "",
          "type": "uint256"
        }
      ],
      "stateMutability": "view",
      "type": "function"
    },
    {
      "inputs": [
        {
          "internalType": "uint256",
          "name": "_itemId",
          "type": "uint256"
        }
      ],
      "name": "getTotalPrice",
      "outputs": [
        {
          "internalType": "uint256",
          "name": "",
          "type": "uint256"
        }
      ],
      "stateMutability": "view",
      "type": "function"
    },
    {
      "inputs": [],
      "name": "itemCount",
      "outputs": [
        {
          "internalType": "uint256",
          "name": "",
          "type": "uint256"
        }
      ],
      "stateMutability": "view",
      "type": "function"
    },
    {
      "inputs": [
        {
          "internalType": "uint256",
          "name": "",
          "type": "uint256"
        }
      ],
      "name": "items",
      "outputs": [
        {
          "internalType": "uint256",
          "name": "id",
          "type": "uint256"
        },
        {
          "internalType": "contract IERC721",
          "name": "nft",
          "type": "address"
        },
        {
          "internalType": "uint256",
          "name": "tokenId",
          "type": "uint256"
        },
        {
          "internalType": "uint256",
          "name": "price",
          "type": "uint256"
        },
        {
          "internalType": "address payable",
          "name": "seller",
          "type": "address"
        },
        {
          "internalType": "bool",
          "name": "sold",
          "type": "bool"
        }
      ],
      "stateMutability": "view",
      "type": "function"
    },
    {
      "inputs": [
        {
          "internalType": "uint256",
          "name": "_itemId",
          "type": "uint256"
        }
      ],
      "name": "purchaseItem",
      "outputs": [],
      "stateMutability": "payable",
      "type": "function"
    }
  ],
  "bytecode": "0x60c0604052600060015534801561001557600080fd5b50604051611170380380611170833981810160405281019061003791906100bc565b60016000819055503373ffffffffffffffffffffffffffffffffffffffff1660808173ffffffffffffffffffffffffffffffffffffffff16815250508060a08181525050506100e9565b600080fd5b6000819050919050565b61009981610086565b81146100a457600080fd5b50565b6000815190506100b681610090565b92915050565b6000602082840312156100d2576100d1610081565b5b60006100e0848285016100a7565b91505092915050565b60805160a05161105461011c600039600081816104720152610523015260008181610448015261070301526110546000f3fe6080604052600436106100705760003560e01c80637fd6f15c1161004e5780637fd6f15c146100f4578063bfb231d21461011f578063ca7dd37514610161578063d38ea5bf1461019e57610070565b806357baf0fb1461007557806365e17c9d1461009e5780636bfb0d01146100c9575b600080fd5b34801561008157600080fd5b5061009c60048036038101906100979190610a0c565b6101ba565b005b3480156100aa57600080fd5b506100b3610446565b6040516100c09190610a80565b60405180910390f35b3480156100d557600080fd5b506100de61046a565b6040516100eb9190610aaa565b60405180910390f35b34801561010057600080fd5b50610109610470565b6040516101169190610aaa565b60405180910390f35b34801561012b57600080fd5b5061014660048036038101906101419190610ac5565b610494565b60405161015896959493929190610b6c565b60405180910390f35b34801561016d57600080fd5b5061018860048036038101906101839190610ac5565b61051d565b6040516101959190610aaa565b60405180910390f35b6101b860048036038101906101b39190610ac5565b610580565b005b6101c2610908565b60008111610205576040517f08c379a00000000000000000000000000000000000000000000000000000000081526004016101fc90610c2a565b60405180910390fd5b6001600081548092919061021890610c79565b91905055508273ffffffffffffffffffffffffffffffffffffffff166323b872dd3330856040518463ffffffff1660e01b815260040161025a93929190610cd0565b600060405180830381600087803b15801561027457600080fd5b505af1158015610288573d6000803e3d6000fd5b505050506040518060c0016040528060015481526020018473ffffffffffffffffffffffffffffffffffffffff1681526020018381526020018281526020013373ffffffffffffffffffffffffffffffffffffffff168152602001600015158152506002600060015481526020019081526020016000206000820151816000015560208201518160010160006101000a81548173ffffffffffffffffffffffffffffffffffffffff021916908373ffffffffffffffffffffffffffffffffffffffff160217905550604082015181600201556060820151816003015560808201518160040160006101000a81548173ffffffffffffffffffffffffffffffffffffffff021916908373ffffffffffffffffffffffffffffffffffffffff16021790555060a08201518160040160146101000a81548160ff0219169083151502179055509050503373ffffffffffffffffffffffffffffffffffffffff168373ffffffffffffffffffffffffffffffffffffffff167f655a0cf9c8db81512be9a76dc1c5ae5380b8816ce6ad659cd61b715e2999d59a600154858560405161043193929190610d07565b60405180910390a3610441610957565b505050565b7f000000000000000000000000000000000000000000000000000000000000000081565b60015481565b7f000000000000000000000000000000000000000000000000000000000000000081565b60026020528060005260406000206000915090508060000154908060010160009054906101000a900473ffffffffffffffffffffffffffffffffffffffff16908060020154908060030154908060040160009054906101000a900473ffffffffffffffffffffffffffffffffffffffff16908060040160149054906101000a900460ff16905086565b600060647f0000000000000000000000000000000000000000000000000000000000000000606461054e9190610d3e565b600260008581526020019081526020016000206003015461056f9190610d72565b6105799190610de3565b9050919050565b610588610908565b60006105938261051d565b905060006002600084815260200190815260200160002090506000831180156105be57506001548311155b6105fd576040517f08c379a00000000000000000000000000000000000000000000000000000000081526004016105f490610e60565b60405180910390fd5b81341015610640576040517f08c379a000000000000000000000000000000000000000000000000000000000815260040161063790610ef2565b60405180910390fd5b8060040160149054906101000a900460ff1615610692576040517f08c379a000000000000000000000000000000000000000000000000000000000815260040161068990610f5e565b60405180910390fd5b8060040160009054906101000a900473ffffffffffffffffffffffffffffffffffffffff1673ffffffffffffffffffffffffffffffffffffffff166108fc82600301549081150290604051600060405180830381858888f19350505050158015610700573d6000803e3d6000fd5b507f000000000000000000000000000000000000000000000000000000000000000073ffffffffffffffffffffffffffffffffffffffff166108fc82600301548461074b9190610f7e565b9081150290604051600060405180830381858888f19350505050158015610776573d6000803e3d6000fd5b5060018160040160146101000a81548160ff0219169083151502179055508060010160009054906101000a900473ffffffffffffffffffffffffffffffffffffffff1673ffffffffffffffffffffffffffffffffffffffff166323b872dd303384600201546040518463ffffffff1660e01b81526004016107f993929190610cd0565b600060405180830381600087803b15801561081357600080fd5b505af1158015610827573d6000803e3d6000fd5b505050503373ffffffffffffffffffffffffffffffffffffffff168160040160009054906101000a900473ffffffffffffffffffffffffffffffffffffffff1673ffffffffffffffffffffffffffffffffffffffff168260010160009054906101000a900473ffffffffffffffffffffffffffffffffffffffff1673ffffffffffffffffffffffffffffffffffffffff167f8b4c9c8a607d67b321582dd8461041b1dc2ceeca70c8b7f37f8e02095cf2e76d86856002015486600301546040516108f393929190610d07565b60405180910390a45050610905610957565b50565b60026000540361094d576040517f08c379a000000000000000000000000000000000000000000000000000000000815260040161094490610ffe565b60405180910390fd5b6002600081905550565b6001600081905550565b600080fd5b600073ffffffffffffffffffffffffffffffffffffffff82169050919050565b600061099182610966565b9050919050565b60006109a382610986565b9050919050565b6109b381610998565b81146109be57600080fd5b50565b6000813590506109d0816109aa565b92915050565b6000819050919050565b6109e9816109d6565b81146109f457600080fd5b50565b600081359050610a06816109e0565b92915050565b600080600060608486031215610a2557610a24610961565b5b6000610a33868287016109c1565b9350506020610a44868287016109f7565b9250506040610a55868287016109f7565b9150509250925092565b6000610a6a82610966565b9050919050565b610a7a81610a5f565b82525050565b6000602082019050610a956000830184610a71565b92915050565b610aa4816109d6565b82525050565b6000602082019050610abf6000830184610a9b565b92915050565b600060208284031215610adb57610ada610961565b5b6000610ae9848285016109f7565b91505092915050565b6000819050919050565b6000610b17610b12610b0d84610966565b610af2565b610966565b9050919050565b6000610b2982610afc565b9050919050565b6000610b3b82610b1e565b9050919050565b610b4b81610b30565b82525050565b60008115159050919050565b610b6681610b51565b82525050565b600060c082019050610b816000830189610a9b565b610b8e6020830188610b42565b610b9b6040830187610a9b565b610ba86060830186610a9b565b610bb56080830185610a71565b610bc260a0830184610b5d565b979650505050505050565b600082825260208201905092915050565b7f5072696365206d7573742062652067726561746572207468616e207a65726f00600082015250565b6000610c14601f83610bcd565b9150610c1f82610bde565b602082019050919050565b60006020820190508181036000830152610c4381610c07565b9050919050565b7f4e487b7100000000000000000000000000000000000000000000000000000000600052601160045260246000fd5b6000610c84826109d6565b91507fffffffffffffffffffffffffffffffffffffffffffffffffffffffffffffffff8203610cb657610cb5610c4a565b5b600182019050919050565b610cca81610986565b82525050565b6000606082019050610ce56000830186610cc1565b610cf26020830185610cc1565b610cff6040830184610a9b565b949350505050565b6000606082019050610d1c6000830186610a9b565b610d296020830185610a9b565b610d366040830184610a9b565b949350505050565b6000610d49826109d6565b9150610d54836109d6565b9250828201905080821115610d6c57610d6b610c4a565b5b92915050565b6000610d7d826109d6565b9150610d88836109d6565b9250828202610d96816109d6565b91508282048414831517610dad57610dac610c4a565b5b5092915050565b7f4e487b7100000000000000000000000000000000000000000000000000000000600052601260045260246000fd5b6000610dee826109d6565b9150610df9836109d6565b925082610e0957610e08610db4565b5b828204905092915050565b7f4974656d20646f65736e27742065786973740000000000000000000000000000600082015250565b6000610e4a601283610bcd565b9150610e5582610e14565b602082019050919050565b60006020820190508181036000830152610e7981610e3d565b9050919050565b7f4e6f7420656e6f75676820657468657220746f20636f766572206974656d207060008201527f7269636520616e64206d61726b65742066656500000000000000000000000000602082015250565b6000610edc603383610bcd565b9150610ee782610e80565b604082019050919050565b60006020820190508181036000830152610f0b81610ecf565b9050919050565b7f4974656d20616c726561647920736f6c64000000000000000000000000000000600082015250565b6000610f48601183610bcd565b9150610f5382610f12565b602082019050919050565b60006020820190508181036000830152610f7781610f3b565b9050919050565b6000610f89826109d6565b9150610f94836109d6565b9250828203905081811115610fac57610fab610c4a565b5b92915050565b7f5265656e7472616e637947756172643a207265656e7472616e742063616c6c00600082015250565b6000610fe8601f83610bcd565b9150610ff382610fb2565b602082019050919050565b6000602082019050818103600083015261101781610fdb565b905091905056fea2646970667358221220dd35e5bf5234b69d335504acd9840453ae6f4e8b0e9da1a8d3a7d651b7f819cc64736f6c634300081b0033",
  "linkReferences": {},
  "deployedLinkReferences": {}
}