{
  "_format": "hh-sol-artifact-1",
  "contractName": "NFTSmartContract",
  "sourceName": "contracts/NFTSmartContract.sol",
  "abi": [
    {
      "inputs": [],
      "stateMutability": "nonpayable",
      "type": "constructor"
    },
    {
      "anonymous": false,
      "inputs": [
        {
          "indexed": true,
          "internalType": "address",
          "name": "owner",
          "type": "address"
        },
        {
          "indexed": true,
          "internalType": "address",
          "name": "approved",
          "type": "address"
        },
        {
          "indexed": true,
          "internalType": "uint256",
          "name": "tokenId",
          "type": "uint256"
        }
      ],
      "name": "Approval",
      "type": "event"
    },
    {
      "anonymous": false,
      "inputs": [
        {
          "indexed": true,
          "internalType": "address",
          "name": "owner",
          "type": "address"
        },
        {
          "indexed": true,
          "internalType": "address",
          "name": "operator",
          "type": "address"
        },
        {
          "indexed": false,
          "internalType": "bool",
          "name": "approved",
          "type": "bool"
        }
      ],
      "name": "ApprovalForAll",
      "type": "event"
    },
    {
      "anonymous": false,
      "inputs": [
        {
          "indexed": false,
          "internalType": "uint256",
          "name": "_fromTokenId",
          "type": "uint256"
        },
        {
          "indexed": false,
          "internalType": "uint256",
          "name": "_toTokenId",
          "type": "uint256"
        }
      ],
      "name": "BatchMetadataUpdate",
      "type": "event"
    },
    {
      "anonymous": false,
      "inputs": [
        {
          "indexed": false,
          "internalType": "uint256",
          "name": "_tokenId",
          "type": "uint256"
        }
      ],
      "name": "MetadataUpdate",
      "type": "event"
    },
    {
      "anonymous": false,
      "inputs": [
        {
          "indexed": false,
          "internalType": "uint256",
          "name": "tokenID",
          "type": "uint256"
        },
        {
          "indexed": false,
          "internalType": "address",
          "name": "from",
          "type": "address"
        },
        {
          "indexed": false,
          "internalType": "address",
          "name": "to",
          "type": "address"
        },
        {
          "indexed": false,
          "internalType": "string",
          "name": "tokenURI",
          "type": "string"
        },
        {
          "indexed": false,
          "internalType": "uint256",
          "name": "price",
          "type": "uint256"
        }
      ],
      "name": "NFTTransfer",
      "type": "event"
    },
    {
      "anonymous": false,
      "inputs": [
        {
          "indexed": true,
          "internalType": "address",
          "name": "previousOwner",
          "type": "address"
        },
        {
          "indexed": true,
          "internalType": "address",
          "name": "newOwner",
          "type": "address"
        }
      ],
      "name": "OwnershipTransferred",
      "type": "event"
    },
    {
      "anonymous": false,
      "inputs": [
        {
          "indexed": true,
          "internalType": "address",
          "name": "from",
          "type": "address"
        },
        {
          "indexed": true,
          "internalType": "address",
          "name": "to",
          "type": "address"
        },
        {
          "indexed": true,
          "internalType": "uint256",
          "name": "tokenId",
          "type": "uint256"
        }
      ],
      "name": "Transfer",
      "type": "event"
    },
    {
      "inputs": [
        {
          "internalType": "address",
          "name": "to",
          "type": "address"
        },
        {
          "internalType": "uint256",
          "name": "tokenId",
          "type": "uint256"
        }
      ],
      "name": "approve",
      "outputs": [],
      "stateMutability": "nonpayable",
      "type": "function"
    },
    {
      "inputs": [
        {
          "internalType": "address",
          "name": "owner",
          "type": "address"
        }
      ],
      "name": "balanceOf",
      "outputs": [
        {
          "internalType": "uint256",
          "name": "",
          "type": "uint256"
        }
      ],
      "stateMutability": "view",
      "type": "function"
    },
    {
      "inputs": [
        {
          "internalType": "uint256",
          "name": "tokenId",
          "type": "uint256"
        }
      ],
      "name": "getApproved",
      "outputs": [
        {
          "internalType": "address",
          "name": "",
          "type": "address"
        }
      ],
      "stateMutability": "view",
      "type": "function"
    },
    {
      "inputs": [
        {
          "internalType": "address",
          "name": "owner",
          "type": "address"
        },
        {
          "internalType": "address",
          "name": "operator",
          "type": "address"
        }
      ],
      "name": "isApprovedForAll",
      "outputs": [
        {
          "internalType": "bool",
          "name": "",
          "type": "bool"
        }
      ],
      "stateMutability": "view",
      "type": "function"
    },
    {
      "inputs": [
        {
          "internalType": "string",
          "name": "_tokenURI",
          "type": "string"
        }
      ],
      "name": "mint",
      "outputs": [
        {
          "internalType": "uint256",
          "name": "",
          "type": "uint256"
        }
      ],
      "stateMutability": "nonpayable",
      "type": "function"
    },
    {
      "inputs": [],
      "name": "name",
      "outputs": [
        {
          "internalType": "string",
          "name": "",
          "type": "string"
        }
      ],
      "stateMutability": "view",
      "type": "function"
    },
    {
      "inputs": [],
      "name": "owner",
      "outputs": [
        {
          "internalType": "address",
          "name": "",
          "type": "address"
        }
      ],
      "stateMutability": "view",
      "type": "function"
    },
    {
      "inputs": [
        {
          "internalType": "uint256",
          "name": "tokenId",
          "type": "uint256"
        }
      ],
      "name": "ownerOf",
      "outputs": [
        {
          "internalType": "address",
          "name": "",
          "type": "address"
        }
      ],
      "stateMutability": "view",
      "type": "function"
    },
    {
      "inputs": [],
      "name": "renounceOwnership",
      "outputs": [],
      "stateMutability": "nonpayable",
      "type": "function"
    },
    {
      "inputs": [
        {
          "internalType": "address",
          "name": "from",
          "type": "address"
        },
        {
          "internalType": "address",
          "name": "to",
          "type": "address"
        },
        {
          "internalType": "uint256",
          "name": "tokenId",
          "type": "uint256"
        }
      ],
      "name": "safeTransferFrom",
      "outputs": [],
      "stateMutability": "nonpayable",
      "type": "function"
    },
    {
      "inputs": [
        {
          "internalType": "address",
          "name": "from",
          "type": "address"
        },
        {
          "internalType": "address",
          "name": "to",
          "type": "address"
        },
        {
          "internalType": "uint256",
          "name": "tokenId",
          "type": "uint256"
        },
        {
          "internalType": "bytes",
          "name": "data",
          "type": "bytes"
        }
      ],
      "name": "safeTransferFrom",
      "outputs": [],
      "stateMutability": "nonpayable",
      "type": "function"
    },
    {
      "inputs": [
        {
          "internalType": "address",
          "name": "operator",
          "type": "address"
        },
        {
          "internalType": "bool",
          "name": "approved",
          "type": "bool"
        }
      ],
      "name": "setApprovalForAll",
      "outputs": [],
      "stateMutability": "nonpayable",
      "type": "function"
    },
    {
      "inputs": [
        {
          "internalType": "bytes4",
          "name": "interfaceId",
          "type": "bytes4"
        }
      ],
      "name": "supportsInterface",
      "outputs": [
        {
          "internalType": "bool",
          "name": "",
          "type": "bool"
        }
      ],
      "stateMutability": "view",
      "type": "function"
    },
    {
      "inputs": [],
      "name": "symbol",
      "outputs": [
        {
          "internalType": "string",
          "name": "",
          "type": "string"
        }
      ],
      "stateMutability": "view",
      "type": "function"
    },
    {
      "inputs": [],
      "name": "tokenCount",
      "outputs": [
        {
          "internalType": "uint256",
          "name": "",
          "type": "uint256"
        }
      ],
      "stateMutability": "view",
      "type": "function"
    },
    {
      "inputs": [
        {
          "internalType": "uint256",
          "name": "tokenId",
          "type": "uint256"
        }
      ],
      "name": "tokenURI",
      "outputs": [
        {
          "internalType": "string",
          "name": "",
          "type": "string"
        }
      ],
      "stateMutability": "view",
      "type": "function"
    },
    {
      "inputs": [
        {
          "internalType": "address",
          "name": "from",
          "type": "address"
        },
        {
          "internalType": "address",
          "name": "to",
          "type": "address"
        },
        {
          "internalType": "uint256",
          "name": "tokenId",
          "type": "uint256"
        }
      ],
      "name": "transferFrom",
      "outputs": [],
      "stateMutability": "nonpayable",
      "type": "function"
    },
    {
      "inputs": [
        {
          "internalType": "address",
          "name": "newOwner",
          "type": "address"
        }
      ],
      "name": "transferOwnership",
      "outputs": [],
      "stateMutability": "nonpayable",
      "type": "function"
    }
  ],
  "bytecode": "0x608060405234801561001057600080fd5b506040518060400160405280600b81526020017f416c65782773204e4654730000000000000000000000000000000000000000008152506040518060400160405280600481526020017f414e465400000000000000000000000000000000000000000000000000000000815250816000908161008c91906103de565b50806001908161009c91906103de565b5050506100bb6100b06100c060201b60201c565b6100c860201b60201c565b6104b0565b600033905090565b6000600760009054906101000a900473ffffffffffffffffffffffffffffffffffffffff16905081600760006101000a81548173ffffffffffffffffffffffffffffffffffffffff021916908373ffffffffffffffffffffffffffffffffffffffff1602179055508173ffffffffffffffffffffffffffffffffffffffff168173ffffffffffffffffffffffffffffffffffffffff167f8be0079c531659141344cd1fd0a4f28419497f9722a3daafe3b4186f6b6457e060405160405180910390a35050565b600081519050919050565b7f4e487b7100000000000000000000000000000000000000000000000000000000600052604160045260246000fd5b7f4e487b7100000000000000000000000000000000000000000000000000000000600052602260045260246000fd5b6000600282049050600182168061020f57607f821691505b602082108103610222576102216101c8565b5b50919050565b60008190508160005260206000209050919050565b60006020601f8301049050919050565b600082821b905092915050565b60006008830261028a7fffffffffffffffffffffffffffffffffffffffffffffffffffffffffffffffff8261024d565b610294868361024d565b95508019841693508086168417925050509392505050565b6000819050919050565b6000819050919050565b60006102db6102d66102d1846102ac565b6102b6565b6102ac565b9050919050565b6000819050919050565b6102f5836102c0565b610309610301826102e2565b84845461025a565b825550505050565b600090565b61031e610311565b6103298184846102ec565b505050565b5b8181101561034d57610342600082610316565b60018101905061032f565b5050565b601f8211156103925761036381610228565b61036c8461023d565b8101602085101561037b578190505b61038f6103878561023d565b83018261032e565b50505b505050565b600082821c905092915050565b60006103b560001984600802610397565b1980831691505092915050565b60006103ce83836103a4565b9150826002028217905092915050565b6103e78261018e565b67ffffffffffffffff811115610400576103ff610199565b5b61040a82546101f7565b610415828285610351565b600060209050601f8311600181146104485760008415610436578287015190505b61044085826103c2565b8655506104a8565b601f19841661045686610228565b60005b8281101561047e57848901518255600182019150602085019450602081019050610459565b8683101561049b5784890151610497601f8916826103a4565b8355505b6001600288020188555050505b505050505050565b612f34806104bf6000396000f3fe608060405234801561001057600080fd5b50600436106101165760003560e01c80638da5cb5b116100a2578063b88d4fde11610071578063b88d4fde146102cd578063c87b56dd146102e9578063d85d3d2714610319578063e985e9c514610349578063f2fde38b1461037957610116565b80638da5cb5b1461025757806395d89b41146102755780639f181b5e14610293578063a22cb465146102b157610116565b806323b872dd116100e957806323b872dd146101b557806342842e0e146101d15780636352211e146101ed57806370a082311461021d578063715018a61461024d57610116565b806301ffc9a71461011b57806306fdde031461014b578063081812fc14610169578063095ea7b314610199575b600080fd5b61013560048036038101906101309190611cc1565b610395565b6040516101429190611d09565b60405180910390f35b6101536103f6565b6040516101609190611db4565b60405180910390f35b610183600480360381019061017e9190611e0c565b610488565b6040516101909190611e7a565b60405180910390f35b6101b360048036038101906101ae9190611ec1565b6104ce565b005b6101cf60048036038101906101ca9190611f01565b6105e5565b005b6101eb60048036038101906101e69190611f01565b610645565b005b61020760048036038101906102029190611e0c565b610665565b6040516102149190611e7a565b60405180910390f35b61023760048036038101906102329190611f54565b6106eb565b6040516102449190611f90565b60405180910390f35b6102556107a2565b005b61025f6107b6565b60405161026c9190611e7a565b60405180910390f35b61027d6107e0565b60405161028a9190611db4565b60405180910390f35b61029b610872565b6040516102a89190611f90565b60405180910390f35b6102cb60048036038101906102c69190611fd7565b610878565b005b6102e760048036038101906102e2919061214c565b61088e565b005b61030360048036038101906102fe9190611e0c565b6108f0565b6040516103109190611db4565b60405180910390f35b610333600480360381019061032e9190612270565b610a02565b6040516103409190611f90565b60405180910390f35b610363600480360381019061035e91906122b9565b610a3e565b6040516103709190611d09565b60405180910390f35b610393600480360381019061038e9190611f54565b610ad2565b005b6000634906490660e01b7bffffffffffffffffffffffffffffffffffffffffffffffffffffffff1916827bffffffffffffffffffffffffffffffffffffffffffffffffffffffff191614806103ef57506103ee82610b55565b5b9050919050565b60606000805461040590612328565b80601f016020809104026020016040519081016040528092919081815260200182805461043190612328565b801561047e5780601f106104535761010080835404028352916020019161047e565b820191906000526020600020905b81548152906001019060200180831161046157829003601f168201915b5050505050905090565b600061049382610c37565b6004600083815260200190815260200160002060009054906101000a900473ffffffffffffffffffffffffffffffffffffffff169050919050565b60006104d982610665565b90508073ffffffffffffffffffffffffffffffffffffffff168373ffffffffffffffffffffffffffffffffffffffff1603610549576040517f08c379a0000000000000000000000000000000000000000000000000000000008152600401610540906123cb565b60405180910390fd5b8073ffffffffffffffffffffffffffffffffffffffff16610568610c82565b73ffffffffffffffffffffffffffffffffffffffff161480610597575061059681610591610c82565b610a3e565b5b6105d6576040517f08c379a00000000000000000000000000000000000000000000000000000000081526004016105cd9061245d565b60405180910390fd5b6105e08383610c8a565b505050565b6105f66105f0610c82565b82610d43565b610635576040517f08c379a000000000000000000000000000000000000000000000000000000000815260040161062c906124ef565b60405180910390fd5b610640838383610dd8565b505050565b6106608383836040518060200160405280600081525061088e565b505050565b600080610671836110d1565b9050600073ffffffffffffffffffffffffffffffffffffffff168173ffffffffffffffffffffffffffffffffffffffff16036106e2576040517f08c379a00000000000000000000000000000000000000000000000000000000081526004016106d99061255b565b60405180910390fd5b80915050919050565b60008073ffffffffffffffffffffffffffffffffffffffff168273ffffffffffffffffffffffffffffffffffffffff160361075b576040517f08c379a0000000000000000000000000000000000000000000000000000000008152600401610752906125ed565b60405180910390fd5b600360008373ffffffffffffffffffffffffffffffffffffffff1673ffffffffffffffffffffffffffffffffffffffff168152602001908152602001600020549050919050565b6107aa61110e565b6107b4600061118c565b565b6000600760009054906101000a900473ffffffffffffffffffffffffffffffffffffffff16905090565b6060600180546107ef90612328565b80601f016020809104026020016040519081016040528092919081815260200182805461081b90612328565b80156108685780601f1061083d57610100808354040283529160200191610868565b820191906000526020600020905b81548152906001019060200180831161084b57829003601f168201915b5050505050905090565b60085481565b61088a610883610c82565b8383611252565b5050565b61089f610899610c82565b83610d43565b6108de576040517f08c379a00000000000000000000000000000000000000000000000000000000081526004016108d5906124ef565b60405180910390fd5b6108ea848484846113be565b50505050565b60606108fb82610c37565b600060066000848152602001908152602001600020805461091b90612328565b80601f016020809104026020016040519081016040528092919081815260200182805461094790612328565b80156109945780601f1061096957610100808354040283529160200191610994565b820191906000526020600020905b81548152906001019060200180831161097757829003601f168201915b5050505050905060006109a561141a565b905060008151036109ba5781925050506109fd565b6000825111156109ef5780826040516020016109d7929190612649565b604051602081830303815290604052925050506109fd565b6109f884611431565b925050505b919050565b600060086000815480929190610a179061269c565b9190505550610a2833600854611499565b610a34600854836114b7565b6008549050919050565b6000600560008473ffffffffffffffffffffffffffffffffffffffff1673ffffffffffffffffffffffffffffffffffffffff16815260200190815260200160002060008373ffffffffffffffffffffffffffffffffffffffff1673ffffffffffffffffffffffffffffffffffffffff16815260200190815260200160002060009054906101000a900460ff16905092915050565b610ada61110e565b600073ffffffffffffffffffffffffffffffffffffffff168173ffffffffffffffffffffffffffffffffffffffff1603610b49576040517f08c379a0000000000000000000000000000000000000000000000000000000008152600401610b4090612756565b60405180910390fd5b610b528161118c565b50565b60007f80ac58cd000000000000000000000000000000000000000000000000000000007bffffffffffffffffffffffffffffffffffffffffffffffffffffffff1916827bffffffffffffffffffffffffffffffffffffffffffffffffffffffff19161480610c2057507f5b5e139f000000000000000000000000000000000000000000000000000000007bffffffffffffffffffffffffffffffffffffffffffffffffffffffff1916827bffffffffffffffffffffffffffffffffffffffffffffffffffffffff1916145b80610c305750610c2f8261155b565b5b9050919050565b610c40816115c5565b610c7f576040517f08c379a0000000000000000000000000000000000000000000000000000000008152600401610c769061255b565b60405180910390fd5b50565b600033905090565b816004600083815260200190815260200160002060006101000a81548173ffffffffffffffffffffffffffffffffffffffff021916908373ffffffffffffffffffffffffffffffffffffffff160217905550808273ffffffffffffffffffffffffffffffffffffffff16610cfd83610665565b73ffffffffffffffffffffffffffffffffffffffff167f8c5be1e5ebec7d5bd14f71427d1e84f3dd0314c0f7b2291e5b200ac8c7c3b92560405160405180910390a45050565b600080610d4f83610665565b90508073ffffffffffffffffffffffffffffffffffffffff168473ffffffffffffffffffffffffffffffffffffffff161480610d915750610d908185610a3e565b5b80610dcf57508373ffffffffffffffffffffffffffffffffffffffff16610db784610488565b73ffffffffffffffffffffffffffffffffffffffff16145b91505092915050565b8273ffffffffffffffffffffffffffffffffffffffff16610df882610665565b73ffffffffffffffffffffffffffffffffffffffff1614610e4e576040517f08c379a0000000000000000000000000000000000000000000000000000000008152600401610e45906127e8565b60405180910390fd5b600073ffffffffffffffffffffffffffffffffffffffff168273ffffffffffffffffffffffffffffffffffffffff1603610ebd576040517f08c379a0000000000000000000000000000000000000000000000000000000008152600401610eb49061287a565b60405180910390fd5b610eca8383836001611606565b8273ffffffffffffffffffffffffffffffffffffffff16610eea82610665565b73ffffffffffffffffffffffffffffffffffffffff1614610f40576040517f08c379a0000000000000000000000000000000000000000000000000000000008152600401610f37906127e8565b60405180910390fd5b6004600082815260200190815260200160002060006101000a81549073ffffffffffffffffffffffffffffffffffffffff02191690556001600360008573ffffffffffffffffffffffffffffffffffffffff1673ffffffffffffffffffffffffffffffffffffffff168152602001908152602001600020600082825403925050819055506001600360008473ffffffffffffffffffffffffffffffffffffffff1673ffffffffffffffffffffffffffffffffffffffff16815260200190815260200160002060008282540192505081905550816002600083815260200190815260200160002060006101000a81548173ffffffffffffffffffffffffffffffffffffffff021916908373ffffffffffffffffffffffffffffffffffffffff160217905550808273ffffffffffffffffffffffffffffffffffffffff168473ffffffffffffffffffffffffffffffffffffffff167fddf252ad1be2c89b69c2b068fc378daa952ba7f163c4a11628f55a4df523b3ef60405160405180910390a46110cc838383600161160c565b505050565b60006002600083815260200190815260200160002060009054906101000a900473ffffffffffffffffffffffffffffffffffffffff169050919050565b611116610c82565b73ffffffffffffffffffffffffffffffffffffffff166111346107b6565b73ffffffffffffffffffffffffffffffffffffffff161461118a576040517f08c379a0000000000000000000000000000000000000000000000000000000008152600401611181906128e6565b60405180910390fd5b565b6000600760009054906101000a900473ffffffffffffffffffffffffffffffffffffffff16905081600760006101000a81548173ffffffffffffffffffffffffffffffffffffffff021916908373ffffffffffffffffffffffffffffffffffffffff1602179055508173ffffffffffffffffffffffffffffffffffffffff168173ffffffffffffffffffffffffffffffffffffffff167f8be0079c531659141344cd1fd0a4f28419497f9722a3daafe3b4186f6b6457e060405160405180910390a35050565b8173ffffffffffffffffffffffffffffffffffffffff168373ffffffffffffffffffffffffffffffffffffffff16036112c0576040517f08c379a00000000000000000000000000000000000000000000000000000000081526004016112b790612952565b60405180910390fd5b80600560008573ffffffffffffffffffffffffffffffffffffffff1673ffffffffffffffffffffffffffffffffffffffff16815260200190815260200160002060008473ffffffffffffffffffffffffffffffffffffffff1673ffffffffffffffffffffffffffffffffffffffff16815260200190815260200160002060006101000a81548160ff0219169083151502179055508173ffffffffffffffffffffffffffffffffffffffff168373ffffffffffffffffffffffffffffffffffffffff167f17307eab39ab6107e8899845ad3d59bd9653f200f220920489ca2b5937696c31836040516113b19190611d09565b60405180910390a3505050565b6113c9848484610dd8565b6113d584848484611612565b611414576040517f08c379a000000000000000000000000000000000000000000000000000000000815260040161140b906129e4565b60405180910390fd5b50505050565b606060405180602001604052806000815250905090565b606061143c82610c37565b600061144661141a565b905060008151116114665760405180602001604052806000815250611491565b8061147084611799565b604051602001611481929190612649565b6040516020818303038152906040525b915050919050565b6114b3828260405180602001604052806000815250611867565b5050565b6114c0826115c5565b6114ff576040517f08c379a00000000000000000000000000000000000000000000000000000000081526004016114f690612a76565b60405180910390fd5b8060066000848152602001908152602001600020908161151f9190612c42565b507ff8e1a15aba9398e019f0b49df1a4fde98ee17ae345cb5f6b5e2c27f5033e8ce78260405161154f9190611f90565b60405180910390a15050565b60007f01ffc9a7000000000000000000000000000000000000000000000000000000007bffffffffffffffffffffffffffffffffffffffffffffffffffffffff1916827bffffffffffffffffffffffffffffffffffffffffffffffffffffffff1916149050919050565b60008073ffffffffffffffffffffffffffffffffffffffff166115e7836110d1565b73ffffffffffffffffffffffffffffffffffffffff1614159050919050565b50505050565b50505050565b60006116338473ffffffffffffffffffffffffffffffffffffffff166118c2565b1561178c578373ffffffffffffffffffffffffffffffffffffffff1663150b7a0261165c610c82565b8786866040518563ffffffff1660e01b815260040161167e9493929190612d69565b6020604051808303816000875af19250505080156116ba57506040513d601f19601f820116820180604052508101906116b79190612dca565b60015b61173c573d80600081146116ea576040519150601f19603f3d011682016040523d82523d6000602084013e6116ef565b606091505b506000815103611734576040517f08c379a000000000000000000000000000000000000000000000000000000000815260040161172b906129e4565b60405180910390fd5b805181602001fd5b63150b7a0260e01b7bffffffffffffffffffffffffffffffffffffffffffffffffffffffff1916817bffffffffffffffffffffffffffffffffffffffffffffffffffffffff191614915050611791565b600190505b949350505050565b6060600060016117a8846118e5565b01905060008167ffffffffffffffff8111156117c7576117c6612021565b5b6040519080825280601f01601f1916602001820160405280156117f95781602001600182028036833780820191505090505b509050600082602001820190505b60011561185c578080600190039150507f3031323334353637383961626364656600000000000000000000000000000000600a86061a8153600a85816118505761184f612df7565b5b04945060008503611807575b819350505050919050565b6118718383611a38565b61187e6000848484611612565b6118bd576040517f08c379a00000000000000000000000000000000000000000000000000000000081526004016118b4906129e4565b60405180910390fd5b505050565b6000808273ffffffffffffffffffffffffffffffffffffffff163b119050919050565b600080600090507a184f03e93ff9f4daa797ed6e38ed64bf6a1f0100000000000000008310611943577a184f03e93ff9f4daa797ed6e38ed64bf6a1f010000000000000000838161193957611938612df7565b5b0492506040810190505b6d04ee2d6d415b85acef81000000008310611980576d04ee2d6d415b85acef8100000000838161197657611975612df7565b5b0492506020810190505b662386f26fc1000083106119af57662386f26fc1000083816119a5576119a4612df7565b5b0492506010810190505b6305f5e10083106119d8576305f5e10083816119ce576119cd612df7565b5b0492506008810190505b61271083106119fd5761271083816119f3576119f2612df7565b5b0492506004810190505b60648310611a205760648381611a1657611a15612df7565b5b0492506002810190505b600a8310611a2f576001810190505b80915050919050565b600073ffffffffffffffffffffffffffffffffffffffff168273ffffffffffffffffffffffffffffffffffffffff1603611aa7576040517f08c379a0000000000000000000000000000000000000000000000000000000008152600401611a9e90612e72565b60405180910390fd5b611ab0816115c5565b15611af0576040517f08c379a0000000000000000000000000000000000000000000000000000000008152600401611ae790612ede565b60405180910390fd5b611afe600083836001611606565b611b07816115c5565b15611b47576040517f08c379a0000000000000000000000000000000000000000000000000000000008152600401611b3e90612ede565b60405180910390fd5b6001600360008473ffffffffffffffffffffffffffffffffffffffff1673ffffffffffffffffffffffffffffffffffffffff16815260200190815260200160002060008282540192505081905550816002600083815260200190815260200160002060006101000a81548173ffffffffffffffffffffffffffffffffffffffff021916908373ffffffffffffffffffffffffffffffffffffffff160217905550808273ffffffffffffffffffffffffffffffffffffffff16600073ffffffffffffffffffffffffffffffffffffffff167fddf252ad1be2c89b69c2b068fc378daa952ba7f163c4a11628f55a4df523b3ef60405160405180910390a4611c5160008383600161160c565b5050565b6000604051905090565b600080fd5b600080fd5b60007fffffffff0000000000000000000000000000000000000000000000000000000082169050919050565b611c9e81611c69565b8114611ca957600080fd5b50565b600081359050611cbb81611c95565b92915050565b600060208284031215611cd757611cd6611c5f565b5b6000611ce584828501611cac565b91505092915050565b60008115159050919050565b611d0381611cee565b82525050565b6000602082019050611d1e6000830184611cfa565b92915050565b600081519050919050565b600082825260208201905092915050565b60005b83811015611d5e578082015181840152602081019050611d43565b60008484015250505050565b6000601f19601f8301169050919050565b6000611d8682611d24565b611d908185611d2f565b9350611da0818560208601611d40565b611da981611d6a565b840191505092915050565b60006020820190508181036000830152611dce8184611d7b565b905092915050565b6000819050919050565b611de981611dd6565b8114611df457600080fd5b50565b600081359050611e0681611de0565b92915050565b600060208284031215611e2257611e21611c5f565b5b6000611e3084828501611df7565b91505092915050565b600073ffffffffffffffffffffffffffffffffffffffff82169050919050565b6000611e6482611e39565b9050919050565b611e7481611e59565b82525050565b6000602082019050611e8f6000830184611e6b565b92915050565b611e9e81611e59565b8114611ea957600080fd5b50565b600081359050611ebb81611e95565b92915050565b60008060408385031215611ed857611ed7611c5f565b5b6000611ee685828601611eac565b9250506020611ef785828601611df7565b9150509250929050565b600080600060608486031215611f1a57611f19611c5f565b5b6000611f2886828701611eac565b9350506020611f3986828701611eac565b9250506040611f4a86828701611df7565b9150509250925092565b600060208284031215611f6a57611f69611c5f565b5b6000611f7884828501611eac565b91505092915050565b611f8a81611dd6565b82525050565b6000602082019050611fa56000830184611f81565b92915050565b611fb481611cee565b8114611fbf57600080fd5b50565b600081359050611fd181611fab565b92915050565b60008060408385031215611fee57611fed611c5f565b5b6000611ffc85828601611eac565b925050602061200d85828601611fc2565b9150509250929050565b600080fd5b600080fd5b7f4e487b7100000000000000000000000000000000000000000000000000000000600052604160045260246000fd5b61205982611d6a565b810181811067ffffffffffffffff8211171561207857612077612021565b5b80604052505050565b600061208b611c55565b90506120978282612050565b919050565b600067ffffffffffffffff8211156120b7576120b6612021565b5b6120c082611d6a565b9050602081019050919050565b82818337600083830152505050565b60006120ef6120ea8461209c565b612081565b90508281526020810184848401111561210b5761210a61201c565b5b6121168482856120cd565b509392505050565b600082601f83011261213357612132612017565b5b81356121438482602086016120dc565b91505092915050565b6000806000806080858703121561216657612165611c5f565b5b600061217487828801611eac565b945050602061218587828801611eac565b935050604061219687828801611df7565b925050606085013567ffffffffffffffff8111156121b7576121b6611c64565b5b6121c38782880161211e565b91505092959194509250565b600067ffffffffffffffff8211156121ea576121e9612021565b5b6121f382611d6a565b9050602081019050919050565b600061221361220e846121cf565b612081565b90508281526020810184848401111561222f5761222e61201c565b5b61223a8482856120cd565b509392505050565b600082601f83011261225757612256612017565b5b8135612267848260208601612200565b91505092915050565b60006020828403121561228657612285611c5f565b5b600082013567ffffffffffffffff8111156122a4576122a3611c64565b5b6122b084828501612242565b91505092915050565b600080604083850312156122d0576122cf611c5f565b5b60006122de85828601611eac565b92505060206122ef85828601611eac565b9150509250929050565b7f4e487b7100000000000000000000000000000000000000000000000000000000600052602260045260246000fd5b6000600282049050600182168061234057607f821691505b602082108103612353576123526122f9565b5b50919050565b7f4552433732313a20617070726f76616c20746f2063757272656e74206f776e6560008201527f7200000000000000000000000000000000000000000000000000000000000000602082015250565b60006123b5602183611d2f565b91506123c082612359565b604082019050919050565b600060208201905081810360008301526123e4816123a8565b9050919050565b7f4552433732313a20617070726f76652063616c6c6572206973206e6f7420746f60008201527f6b656e206f776e6572206f7220617070726f76656420666f7220616c6c000000602082015250565b6000612447603d83611d2f565b9150612452826123eb565b604082019050919050565b600060208201905081810360008301526124768161243a565b9050919050565b7f4552433732313a2063616c6c6572206973206e6f7420746f6b656e206f776e6560008201527f72206f7220617070726f76656400000000000000000000000000000000000000602082015250565b60006124d9602d83611d2f565b91506124e48261247d565b604082019050919050565b60006020820190508181036000830152612508816124cc565b9050919050565b7f4552433732313a20696e76616c696420746f6b656e2049440000000000000000600082015250565b6000612545601883611d2f565b91506125508261250f565b602082019050919050565b6000602082019050818103600083015261257481612538565b9050919050565b7f4552433732313a2061646472657373207a65726f206973206e6f74206120766160008201527f6c6964206f776e65720000000000000000000000000000000000000000000000602082015250565b60006125d7602983611d2f565b91506125e28261257b565b604082019050919050565b60006020820190508181036000830152612606816125ca565b9050919050565b600081905092915050565b600061262382611d24565b61262d818561260d565b935061263d818560208601611d40565b80840191505092915050565b60006126558285612618565b91506126618284612618565b91508190509392505050565b7f4e487b7100000000000000000000000000000000000000000000000000000000600052601160045260246000fd5b60006126a782611dd6565b91507fffffffffffffffffffffffffffffffffffffffffffffffffffffffffffffffff82036126d9576126d861266d565b5b600182019050919050565b7f4f776e61626c653a206e6577206f776e657220697320746865207a65726f206160008201527f6464726573730000000000000000000000000000000000000000000000000000602082015250565b6000612740602683611d2f565b915061274b826126e4565b604082019050919050565b6000602082019050818103600083015261276f81612733565b9050919050565b7f4552433732313a207472616e736665722066726f6d20696e636f72726563742060008201527f6f776e6572000000000000000000000000000000000000000000000000000000602082015250565b60006127d2602583611d2f565b91506127dd82612776565b604082019050919050565b60006020820190508181036000830152612801816127c5565b9050919050565b7f4552433732313a207472616e7366657220746f20746865207a65726f2061646460008201527f7265737300000000000000000000000000000000000000000000000000000000602082015250565b6000612864602483611d2f565b915061286f82612808565b604082019050919050565b6000602082019050818103600083015261289381612857565b9050919050565b7f4f776e61626c653a2063616c6c6572206973206e6f7420746865206f776e6572600082015250565b60006128d0602083611d2f565b91506128db8261289a565b602082019050919050565b600060208201905081810360008301526128ff816128c3565b9050919050565b7f4552433732313a20617070726f766520746f2063616c6c657200000000000000600082015250565b600061293c601983611d2f565b915061294782612906565b602082019050919050565b6000602082019050818103600083015261296b8161292f565b9050919050565b7f4552433732313a207472616e7366657220746f206e6f6e20455243373231526560008201527f63656976657220696d706c656d656e7465720000000000000000000000000000602082015250565b60006129ce603283611d2f565b91506129d982612972565b604082019050919050565b600060208201905081810360008301526129fd816129c1565b9050919050565b7f45524337323155524953746f726167653a2055524920736574206f66206e6f6e60008201527f6578697374656e7420746f6b656e000000000000000000000000000000000000602082015250565b6000612a60602e83611d2f565b9150612a6b82612a04565b604082019050919050565b60006020820190508181036000830152612a8f81612a53565b9050919050565b60008190508160005260206000209050919050565b60006020601f8301049050919050565b600082821b905092915050565b600060088302612af87fffffffffffffffffffffffffffffffffffffffffffffffffffffffffffffffff82612abb565b612b028683612abb565b95508019841693508086168417925050509392505050565b6000819050919050565b6000612b3f612b3a612b3584611dd6565b612b1a565b611dd6565b9050919050565b6000819050919050565b612b5983612b24565b612b6d612b6582612b46565b848454612ac8565b825550505050565b600090565b612b82612b75565b612b8d818484612b50565b505050565b5b81811015612bb157612ba6600082612b7a565b600181019050612b93565b5050565b601f821115612bf657612bc781612a96565b612bd084612aab565b81016020851015612bdf578190505b612bf3612beb85612aab565b830182612b92565b50505b505050565b600082821c905092915050565b6000612c1960001984600802612bfb565b1980831691505092915050565b6000612c328383612c08565b9150826002028217905092915050565b612c4b82611d24565b67ffffffffffffffff811115612c6457612c63612021565b5b612c6e8254612328565b612c79828285612bb5565b600060209050601f831160018114612cac5760008415612c9a578287015190505b612ca48582612c26565b865550612d0c565b601f198416612cba86612a96565b60005b82811015612ce257848901518255600182019150602085019450602081019050612cbd565b86831015612cff5784890151612cfb601f891682612c08565b8355505b6001600288020188555050505b505050505050565b600081519050919050565b600082825260208201905092915050565b6000612d3b82612d14565b612d458185612d1f565b9350612d55818560208601611d40565b612d5e81611d6a565b840191505092915050565b6000608082019050612d7e6000830187611e6b565b612d8b6020830186611e6b565b612d986040830185611f81565b8181036060830152612daa8184612d30565b905095945050505050565b600081519050612dc481611c95565b92915050565b600060208284031215612de057612ddf611c5f565b5b6000612dee84828501612db5565b91505092915050565b7f4e487b7100000000000000000000000000000000000000000000000000000000600052601260045260246000fd5b7f4552433732313a206d696e7420746f20746865207a65726f2061646472657373600082015250565b6000612e5c602083611d2f565b9150612e6782612e26565b602082019050919050565b60006020820190508181036000830152612e8b81612e4f565b9050919050565b7f4552433732313a20746f6b656e20616c7265616479206d696e74656400000000600082015250565b6000612ec8601c83611d2f565b9150612ed382612e92565b602082019050919050565b60006020820190508181036000830152612ef781612ebb565b905091905056fea2646970667358221220e6d84681166be3c1706561f17778cfebc080357a39969a1e61f2e09f464673aa64736f6c634300081b0033",
  "linkReferences": {},
  "deployedLinkReferences": {}
}