{
  "_format": "hh-sol-artifact-1",
  "contractName": "SmartContract",
  "sourceName": "contracts/smartcontract.sol",
  "abi": [
    {
      "inputs": [],
      "stateMutability": "nonpayable",
      "type": "constructor"
    },
    {
      "anonymous": false,
      "inputs": [
        {
          "indexed": false,
          "internalType": "address",
          "name": "sender",
          "type": "address"
        },
        {
          "indexed": false,
          "internalType": "address",
          "name": "receiver",
          "type": "address"
        },
        {
          "indexed": false,
          "internalType": "uint256",
          "name": "amount",
          "type": "uint256"
        }
      ],
      "name": "Burn",
      "type": "event"
    },
    {
      "anonymous": false,
      "inputs": [
        {
          "indexed": true,
          "internalType": "address",
          "name": "_owner",
          "type": "address"
        }
      ],
      "name": "ConstructorCalled",
      "type": "event"
    },
    {
      "anonymous": false,
      "inputs": [
        {
          "indexed": false,
          "internalType": "address",
          "name": "sender",
          "type": "address"
        },
        {
          "indexed": false,
          "internalType": "address",
          "name": "receiver",
          "type": "address"
        },
        {
          "indexed": false,
          "internalType": "uint256",
          "name": "amount",
          "type": "uint256"
        }
      ],
      "name": "Mint",
      "type": "event"
    },
    {
      "anonymous": false,
      "inputs": [
        {
          "indexed": false,
          "internalType": "address",
          "name": "sender",
          "type": "address"
        },
        {
          "indexed": false,
          "internalType": "address",
          "name": "receiver",
          "type": "address"
        },
        {
          "indexed": false,
          "internalType": "uint256",
          "name": "amount",
          "type": "uint256"
        }
      ],
      "name": "Transcation",
      "type": "event"
    },
    {
      "anonymous": false,
      "inputs": [
        {
          "indexed": false,
          "internalType": "uint256",
          "name": "id",
          "type": "uint256"
        },
        {
          "indexed": false,
          "internalType": "address",
          "name": "author",
          "type": "address"
        },
        {
          "indexed": false,
          "internalType": "string",
          "name": "content",
          "type": "string"
        },
        {
          "indexed": false,
          "internalType": "uint256",
          "name": "timestamp",
          "type": "uint256"
        }
      ],
      "name": "messageCreatedEvent",
      "type": "event"
    },
    {
      "anonymous": false,
      "inputs": [
        {
          "indexed": false,
          "internalType": "address",
          "name": "liker",
          "type": "address"
        },
        {
          "indexed": false,
          "internalType": "address",
          "name": "tweetAuthor",
          "type": "address"
        },
        {
          "indexed": false,
          "internalType": "uint256",
          "name": "tweetId",
          "type": "uint256"
        },
        {
          "indexed": false,
          "internalType": "uint256",
          "name": "newLikeCount",
          "type": "uint256"
        }
      ],
      "name": "messageLikeEvent",
      "type": "event"
    },
    {
      "anonymous": false,
      "inputs": [
        {
          "indexed": false,
          "internalType": "address",
          "name": "unliker",
          "type": "address"
        },
        {
          "indexed": false,
          "internalType": "address",
          "name": "tweetAuthor",
          "type": "address"
        },
        {
          "indexed": false,
          "internalType": "uint256",
          "name": "tweetId",
          "type": "uint256"
        },
        {
          "indexed": false,
          "internalType": "uint256",
          "name": "newLikeCount",
          "type": "uint256"
        }
      ],
      "name": "messageUnlikeEvent",
      "type": "event"
    },
    {
      "inputs": [
        {
          "internalType": "address",
          "name": "",
          "type": "address"
        }
      ],
      "name": "balances",
      "outputs": [
        {
          "internalType": "uint256",
          "name": "",
          "type": "uint256"
        }
      ],
      "stateMutability": "view",
      "type": "function"
    },
    {
      "inputs": [
        {
          "internalType": "uint256",
          "name": "_amount",
          "type": "uint256"
        }
      ],
      "name": "burn",
      "outputs": [],
      "stateMutability": "nonpayable",
      "type": "function"
    },
    {
      "inputs": [
        {
          "internalType": "string",
          "name": "_messages",
          "type": "string"
        }
      ],
      "name": "createMessage",
      "outputs": [],
      "stateMutability": "nonpayable",
      "type": "function"
    },
    {
      "inputs": [
        {
          "internalType": "address",
          "name": "_owner",
          "type": "address"
        }
      ],
      "name": "getAllMessages",
      "outputs": [
        {
          "components": [
            {
              "internalType": "uint256",
              "name": "id",
              "type": "uint256"
            },
            {
              "internalType": "address",
              "name": "author",
              "type": "address"
            },
            {
              "internalType": "string",
              "name": "content",
              "type": "string"
            },
            {
              "internalType": "uint256",
              "name": "timestamp",
              "type": "uint256"
            },
            {
              "internalType": "uint256",
              "name": "likes",
              "type": "uint256"
            }
          ],
          "internalType": "struct SmartContract.Messages[]",
          "name": "",
          "type": "tuple[]"
        }
      ],
      "stateMutability": "view",
      "type": "function"
    },
    {
      "inputs": [
        {
          "internalType": "uint16",
          "name": "_i",
          "type": "uint16"
        }
      ],
      "name": "getSenderMessages",
      "outputs": [
        {
          "components": [
            {
              "internalType": "uint256",
              "name": "id",
              "type": "uint256"
            },
            {
              "internalType": "address",
              "name": "author",
              "type": "address"
            },
            {
              "internalType": "string",
              "name": "content",
              "type": "string"
            },
            {
              "internalType": "uint256",
              "name": "timestamp",
              "type": "uint256"
            },
            {
              "internalType": "uint256",
              "name": "likes",
              "type": "uint256"
            }
          ],
          "internalType": "struct SmartContract.Messages",
          "name": "",
          "type": "tuple"
        }
      ],
      "stateMutability": "view",
      "type": "function"
    },
    {
      "inputs": [
        {
          "internalType": "address",
          "name": "author",
          "type": "address"
        },
        {
          "internalType": "uint256",
          "name": "_message_number",
          "type": "uint256"
        }
      ],
      "name": "likeMessage",
      "outputs": [],
      "stateMutability": "nonpayable",
      "type": "function"
    },
    {
      "inputs": [
        {
          "internalType": "address",
          "name": "",
          "type": "address"
        },
        {
          "internalType": "uint256",
          "name": "",
          "type": "uint256"
        }
      ],
      "name": "messages",
      "outputs": [
        {
          "internalType": "uint256",
          "name": "id",
          "type": "uint256"
        },
        {
          "internalType": "address",
          "name": "author",
          "type": "address"
        },
        {
          "internalType": "string",
          "name": "content",
          "type": "string"
        },
        {
          "internalType": "uint256",
          "name": "timestamp",
          "type": "uint256"
        },
        {
          "internalType": "uint256",
          "name": "likes",
          "type": "uint256"
        }
      ],
      "stateMutability": "view",
      "type": "function"
    },
    {
      "inputs": [
        {
          "internalType": "address",
          "name": "_account",
          "type": "address"
        },
        {
          "internalType": "uint256",
          "name": "_amount",
          "type": "uint256"
        }
      ],
      "name": "mint",
      "outputs": [],
      "stateMutability": "payable",
      "type": "function"
    },
    {
      "inputs": [],
      "name": "owner",
      "outputs": [
        {
          "internalType": "address payable",
          "name": "",
          "type": "address"
        }
      ],
      "stateMutability": "view",
      "type": "function"
    },
    {
      "inputs": [
        {
          "internalType": "address",
          "name": "_to",
          "type": "address"
        },
        {
          "internalType": "uint256",
          "name": "_amount",
          "type": "uint256"
        }
      ],
      "name": "transfer",
      "outputs": [],
      "stateMutability": "payable",
      "type": "function"
    },
    {
      "inputs": [
        {
          "internalType": "address",
          "name": "author",
          "type": "address"
        },
        {
          "internalType": "uint256",
          "name": "_message_number",
          "type": "uint256"
        }
      ],
      "name": "unLikeMessage",
      "outputs": [],
      "stateMutability": "nonpayable",
      "type": "function"
    }
  ],
  "bytecode": "0x6080604052348015600f57600080fd5b50336000806101000a81548173ffffffffffffffffffffffffffffffffffffffff021916908373ffffffffffffffffffffffffffffffffffffffff16021790555060008054906101000a900473ffffffffffffffffffffffffffffffffffffffff1673ffffffffffffffffffffffffffffffffffffffff167fbad9c536aeab214bd62c78cc39018cff9fe81815d763bd829e24a3b171af6a8360405160405180910390a2611ee5806100c26000396000f3fe60806040526004361061009c5760003560e01c806342966c681161006457806342966c681461018957806347e7c75e146101b25780635c21a953146101db5780638da5cb5b14610218578063a9059cbb14610243578063c45d9bea1461025f5761009c565b8063198a2de9146100a157806327e235e3146100ca57806329b2ec6414610107578063301b5b101461014457806340c10f191461016d575b600080fd5b3480156100ad57600080fd5b506100c860048036038101906100c39190611230565b6102a0565b005b3480156100d657600080fd5b506100f160048036038101906100ec91906112d7565b61045b565b6040516100fe919061131d565b60405180910390f35b34801561011357600080fd5b5061012e600480360381019061012991906112d7565b610473565b60405161013b919061150d565b60405180910390f35b34801561015057600080fd5b5061016b6004803603810190610166919061155b565b6106a5565b005b6101876004803603810190610182919061155b565b6107c0565b005b34801561019557600080fd5b506101b060048036038101906101ab919061159b565b610953565b005b3480156101be57600080fd5b506101d960048036038101906101d4919061155b565b610b67565b005b3480156101e757600080fd5b5061020260048036038101906101fd9190611602565b610c82565b60405161020f91906116a5565b60405180910390f35b34801561022457600080fd5b5061022d610e05565b60405161023a91906116e8565b60405180910390f35b61025d6004803603810190610258919061155b565b610e29565b005b34801561026b57600080fd5b506102866004803603810190610281919061155b565b610f96565b60405161029795949392919061175c565b60405180910390f35b60006040518060a00160405280600260003373ffffffffffffffffffffffffffffffffffffffff1673ffffffffffffffffffffffffffffffffffffffff1681526020019081526020016000208054905081526020013373ffffffffffffffffffffffffffffffffffffffff16815260200183815260200142815260200160008152509050600260003373ffffffffffffffffffffffffffffffffffffffff1673ffffffffffffffffffffffffffffffffffffffff1681526020019081526020016000208190806001815401808255809150506001900390600052602060002090600502016000909190919091506000820151816000015560208201518160010160006101000a81548173ffffffffffffffffffffffffffffffffffffffff021916908373ffffffffffffffffffffffffffffffffffffffff16021790555060408201518160020190816103f391906119c2565b50606082015181600301556080820151816004015550507fba94f50c215ccf1a21952e51f41ca44408402485a471b02c24b4b73c1ef237ec816000015182602001518360400151846060015160405161044f9493929190611a94565b60405180910390a15050565b60016020528060005260406000206000915090505481565b606060008054906101000a900473ffffffffffffffffffffffffffffffffffffffff1673ffffffffffffffffffffffffffffffffffffffff163373ffffffffffffffffffffffffffffffffffffffff1614610503576040517f08c379a00000000000000000000000000000000000000000000000000000000081526004016104fa90611b2c565b60405180910390fd5b600260008373ffffffffffffffffffffffffffffffffffffffff1673ffffffffffffffffffffffffffffffffffffffff168152602001908152602001600020805480602002602001604051908101604052809291908181526020016000905b8282101561069a57838290600052602060002090600502016040518060a0016040529081600082015481526020016001820160009054906101000a900473ffffffffffffffffffffffffffffffffffffffff1673ffffffffffffffffffffffffffffffffffffffff1673ffffffffffffffffffffffffffffffffffffffff1681526020016002820180546105f5906117e5565b80601f0160208091040260200160405190810160405280929190818152602001828054610621906117e5565b801561066e5780601f106106435761010080835404028352916020019161066e565b820191906000526020600020905b81548152906001019060200180831161065157829003601f168201915b505050505081526020016003820154815260200160048201548152505081526020019060010190610562565b505050509050919050565b600260008373ffffffffffffffffffffffffffffffffffffffff1673ffffffffffffffffffffffffffffffffffffffff16815260200190815260200160002081815481106106f6576106f5611b4c565b5b9060005260206000209060050201600401600081548092919061071890611baa565b91905055507f7a0d9c986b197293bc70a6c7b5909b1546cff6d1819b0a070238a7ab146020f3338383600260008773ffffffffffffffffffffffffffffffffffffffff1673ffffffffffffffffffffffffffffffffffffffff168152602001908152602001600020858154811061079257610791611b4c565b5b9060005260206000209060050201600401546040516107b49493929190611bd3565b60405180910390a15050565b60008054906101000a900473ffffffffffffffffffffffffffffffffffffffff1673ffffffffffffffffffffffffffffffffffffffff163373ffffffffffffffffffffffffffffffffffffffff161461084e576040517f08c379a000000000000000000000000000000000000000000000000000000000815260040161084590611b2c565b60405180910390fd5b600073ffffffffffffffffffffffffffffffffffffffff168273ffffffffffffffffffffffffffffffffffffffff16036108bd576040517f08c379a00000000000000000000000000000000000000000000000000000000081526004016108b490611c64565b60405180910390fd5b80600160008473ffffffffffffffffffffffffffffffffffffffff1673ffffffffffffffffffffffffffffffffffffffff168152602001908152602001600020600082825461090c9190611c84565b925050819055507fab8530f87dc9b59234c4623bf917212bb2536d647574c8e7e5da92c2ede0c9f83360008360405161094793929190611cb8565b60405180910390a15050565b60008054906101000a900473ffffffffffffffffffffffffffffffffffffffff1673ffffffffffffffffffffffffffffffffffffffff163373ffffffffffffffffffffffffffffffffffffffff16146109e1576040517f08c379a00000000000000000000000000000000000000000000000000000000081526004016109d890611b2c565b60405180910390fd5b600073ffffffffffffffffffffffffffffffffffffffff163373ffffffffffffffffffffffffffffffffffffffff1603610a50576040517f08c379a0000000000000000000000000000000000000000000000000000000008152600401610a4790611d3b565b60405180910390fd5b80600160003373ffffffffffffffffffffffffffffffffffffffff1673ffffffffffffffffffffffffffffffffffffffff168152602001908152602001600020541015610ad2576040517f08c379a0000000000000000000000000000000000000000000000000000000008152600401610ac990611da7565b60405180910390fd5b80600160003373ffffffffffffffffffffffffffffffffffffffff1673ffffffffffffffffffffffffffffffffffffffff1681526020019081526020016000206000828254610b219190611dc7565b925050819055507fbac40739b0d4ca32fa2d82fc91630465ba3eddd1598da6fca393b26fb63b945333600083604051610b5c93929190611cb8565b60405180910390a150565b600260008373ffffffffffffffffffffffffffffffffffffffff1673ffffffffffffffffffffffffffffffffffffffff1681526020019081526020016000208181548110610bb857610bb7611b4c565b5b90600052602060002090600502016004016000815480929190610bda90611dfb565b91905055507fe8aa87c2b136fa9a23f13c81d0354904ffc3523218978a9b58818738c81528cc338383600260008773ffffffffffffffffffffffffffffffffffffffff1673ffffffffffffffffffffffffffffffffffffffff1681526020019081526020016000208581548110610c5457610c53611b4c565b5b906000526020600020906005020160040154604051610c769493929190611bd3565b60405180910390a15050565b610c8a611091565b600260003373ffffffffffffffffffffffffffffffffffffffff1673ffffffffffffffffffffffffffffffffffffffff1681526020019081526020016000208261ffff1681548110610cdf57610cde611b4c565b5b90600052602060002090600502016040518060a0016040529081600082015481526020016001820160009054906101000a900473ffffffffffffffffffffffffffffffffffffffff1673ffffffffffffffffffffffffffffffffffffffff1673ffffffffffffffffffffffffffffffffffffffff168152602001600282018054610d68906117e5565b80601f0160208091040260200160405190810160405280929190818152602001828054610d94906117e5565b8015610de15780601f10610db657610100808354040283529160200191610de1565b820191906000526020600020905b815481529060010190602001808311610dc457829003601f168201915b50505050508152602001600382015481526020016004820154815250509050919050565b60008054906101000a900473ffffffffffffffffffffffffffffffffffffffff1681565b80600160003373ffffffffffffffffffffffffffffffffffffffff1673ffffffffffffffffffffffffffffffffffffffff168152602001908152602001600020541015610eab576040517f08c379a0000000000000000000000000000000000000000000000000000000008152600401610ea290611e8f565b60405180910390fd5b80600160003373ffffffffffffffffffffffffffffffffffffffff1673ffffffffffffffffffffffffffffffffffffffff1681526020019081526020016000206000828254610efa9190611dc7565b9250508190555080600160008473ffffffffffffffffffffffffffffffffffffffff1673ffffffffffffffffffffffffffffffffffffffff1681526020019081526020016000206000828254610f509190611c84565b925050819055507f033dfdce17f773374cfb2062850c85b6944b4f1962063c9c5b1a1689048e9e4f338383604051610f8a93929190611cb8565b60405180910390a15050565b60026020528160005260406000208181548110610fb257600080fd5b9060005260206000209060050201600091509150508060000154908060010160009054906101000a900473ffffffffffffffffffffffffffffffffffffffff1690806002018054611002906117e5565b80601f016020809104026020016040519081016040528092919081815260200182805461102e906117e5565b801561107b5780601f106110505761010080835404028352916020019161107b565b820191906000526020600020905b81548152906001019060200180831161105e57829003601f168201915b5050505050908060030154908060040154905085565b6040518060a0016040528060008152602001600073ffffffffffffffffffffffffffffffffffffffff1681526020016060815260200160008152602001600081525090565b6000604051905090565b600080fd5b600080fd5b600080fd5b600080fd5b6000601f19601f8301169050919050565b7f4e487b7100000000000000000000000000000000000000000000000000000000600052604160045260246000fd5b61113d826110f4565b810181811067ffffffffffffffff8211171561115c5761115b611105565b5b80604052505050565b600061116f6110d6565b905061117b8282611134565b919050565b600067ffffffffffffffff82111561119b5761119a611105565b5b6111a4826110f4565b9050602081019050919050565b82818337600083830152505050565b60006111d36111ce84611180565b611165565b9050828152602081018484840111156111ef576111ee6110ef565b5b6111fa8482856111b1565b509392505050565b600082601f830112611217576112166110ea565b5b81356112278482602086016111c0565b91505092915050565b600060208284031215611246576112456110e0565b5b600082013567ffffffffffffffff811115611264576112636110e5565b5b61127084828501611202565b91505092915050565b600073ffffffffffffffffffffffffffffffffffffffff82169050919050565b60006112a482611279565b9050919050565b6112b481611299565b81146112bf57600080fd5b50565b6000813590506112d1816112ab565b92915050565b6000602082840312156112ed576112ec6110e0565b5b60006112fb848285016112c2565b91505092915050565b6000819050919050565b61131781611304565b82525050565b6000602082019050611332600083018461130e565b92915050565b600081519050919050565b600082825260208201905092915050565b6000819050602082019050919050565b61136d81611304565b82525050565b61137c81611299565b82525050565b600081519050919050565b600082825260208201905092915050565b60005b838110156113bc5780820151818401526020810190506113a1565b60008484015250505050565b60006113d382611382565b6113dd818561138d565b93506113ed81856020860161139e565b6113f6816110f4565b840191505092915050565b600060a0830160008301516114196000860182611364565b50602083015161142c6020860182611373565b506040830151848203604086015261144482826113c8565b91505060608301516114596060860182611364565b50608083015161146c6080860182611364565b508091505092915050565b60006114838383611401565b905092915050565b6000602082019050919050565b60006114a382611338565b6114ad8185611343565b9350836020820285016114bf85611354565b8060005b858110156114fb57848403895281516114dc8582611477565b94506114e78361148b565b925060208a019950506001810190506114c3565b50829750879550505050505092915050565b600060208201905081810360008301526115278184611498565b905092915050565b61153881611304565b811461154357600080fd5b50565b6000813590506115558161152f565b92915050565b60008060408385031215611572576115716110e0565b5b6000611580858286016112c2565b925050602061159185828601611546565b9150509250929050565b6000602082840312156115b1576115b06110e0565b5b60006115bf84828501611546565b91505092915050565b600061ffff82169050919050565b6115df816115c8565b81146115ea57600080fd5b50565b6000813590506115fc816115d6565b92915050565b600060208284031215611618576116176110e0565b5b6000611626848285016115ed565b91505092915050565b600060a0830160008301516116476000860182611364565b50602083015161165a6020860182611373565b506040830151848203604086015261167282826113c8565b91505060608301516116876060860182611364565b50608083015161169a6080860182611364565b508091505092915050565b600060208201905081810360008301526116bf818461162f565b905092915050565b60006116d282611279565b9050919050565b6116e2816116c7565b82525050565b60006020820190506116fd60008301846116d9565b92915050565b61170c81611299565b82525050565b600082825260208201905092915050565b600061172e82611382565b6117388185611712565b935061174881856020860161139e565b611751816110f4565b840191505092915050565b600060a082019050611771600083018861130e565b61177e6020830187611703565b81810360408301526117908186611723565b905061179f606083018561130e565b6117ac608083018461130e565b9695505050505050565b7f4e487b7100000000000000000000000000000000000000000000000000000000600052602260045260246000fd5b600060028204905060018216806117fd57607f821691505b6020821081036118105761180f6117b6565b5b50919050565b60008190508160005260206000209050919050565b60006020601f8301049050919050565b600082821b905092915050565b6000600883026118787fffffffffffffffffffffffffffffffffffffffffffffffffffffffffffffffff8261183b565b611882868361183b565b95508019841693508086168417925050509392505050565b6000819050919050565b60006118bf6118ba6118b584611304565b61189a565b611304565b9050919050565b6000819050919050565b6118d9836118a4565b6118ed6118e5826118c6565b848454611848565b825550505050565b600090565b6119026118f5565b61190d8184846118d0565b505050565b5b81811015611931576119266000826118fa565b600181019050611913565b5050565b601f8211156119765761194781611816565b6119508461182b565b8101602085101561195f578190505b61197361196b8561182b565b830182611912565b50505b505050565b600082821c905092915050565b60006119996000198460080261197b565b1980831691505092915050565b60006119b28383611988565b9150826002028217905092915050565b6119cb82611382565b67ffffffffffffffff8111156119e4576119e3611105565b5b6119ee82546117e5565b6119f9828285611935565b600060209050601f831160018114611a2c5760008415611a1a578287015190505b611a2485826119a6565b865550611a8c565b601f198416611a3a86611816565b60005b82811015611a6257848901518255600182019150602085019450602081019050611a3d565b86831015611a7f5784890151611a7b601f891682611988565b8355505b6001600288020188555050505b505050505050565b6000608082019050611aa9600083018761130e565b611ab66020830186611703565b8181036040830152611ac88185611723565b9050611ad7606083018461130e565b95945050505050565b7f596f7520617265204e6f7420746865204f776e65722100000000000000000000600082015250565b6000611b16601683611712565b9150611b2182611ae0565b602082019050919050565b60006020820190508181036000830152611b4581611b09565b9050919050565b7f4e487b7100000000000000000000000000000000000000000000000000000000600052603260045260246000fd5b7f4e487b7100000000000000000000000000000000000000000000000000000000600052601160045260246000fd5b6000611bb582611304565b915060008203611bc857611bc7611b7b565b5b600182039050919050565b6000608082019050611be86000830187611703565b611bf56020830186611703565b611c02604083018561130e565b611c0f606083018461130e565b95945050505050565b7f4d696e7420746f20746865207a65726f20616464726573730000000000000000600082015250565b6000611c4e601883611712565b9150611c5982611c18565b602082019050919050565b60006020820190508181036000830152611c7d81611c41565b9050919050565b6000611c8f82611304565b9150611c9a83611304565b9250828201905080821115611cb257611cb1611b7b565b5b92915050565b6000606082019050611ccd6000830186611703565b611cda6020830185611703565b611ce7604083018461130e565b949350505050565b7f4275726e2066726f6d20746865207a65726f2061646472657373000000000000600082015250565b6000611d25601a83611712565b9150611d3082611cef565b602082019050919050565b60006020820190508181036000830152611d5481611d18565b9050919050565b7f4275726e20616d6f756e7420657863656564732062616c616e63650000000000600082015250565b6000611d91601b83611712565b9150611d9c82611d5b565b602082019050919050565b60006020820190508181036000830152611dc081611d84565b9050919050565b6000611dd282611304565b9150611ddd83611304565b9250828203905081811115611df557611df4611b7b565b5b92915050565b6000611e0682611304565b91507fffffffffffffffffffffffffffffffffffffffffffffffffffffffffffffffff8203611e3857611e37611b7b565b5b600182019050919050565b7f496e73756666696369656e742062616c616e6365000000000000000000000000600082015250565b6000611e79601483611712565b9150611e8482611e43565b602082019050919050565b60006020820190508181036000830152611ea881611e6c565b905091905056fea2646970667358221220a4479ef99832fd368f2dc89f8977a09b5bdb4216048d9b5786410995b9e9653264736f6c634300081b0033",
  "linkReferences": {},
  "deployedLinkReferences": {}
}