{
  "_format": "hh-sol-artifact-1",
  "contractName": "SmartContract",
  "sourceName": "contracts/smartcontract.sol",
  "abi": [
    {
      "inputs": [],
      "stateMutability": "nonpayable",
      "type": "constructor"
    },
    {
      "anonymous": false,
      "inputs": [
        {
          "indexed": false,
          "internalType": "address",
          "name": "sender",
          "type": "address"
        },
        {
          "indexed": false,
          "internalType": "address",
          "name": "receiver",
          "type": "address"
        },
        {
          "indexed": false,
          "internalType": "uint256",
          "name": "amount",
          "type": "uint256"
        }
      ],
      "name": "Burn",
      "type": "event"
    },
    {
      "anonymous": false,
      "inputs": [
        {
          "indexed": true,
          "internalType": "address",
          "name": "_owner",
          "type": "address"
        }
      ],
      "name": "ConstructorCalled",
      "type": "event"
    },
    {
      "anonymous": false,
      "inputs": [
        {
          "indexed": false,
          "internalType": "address",
          "name": "sender",
          "type": "address"
        },
        {
          "indexed": false,
          "internalType": "address",
          "name": "receiver",
          "type": "address"
        },
        {
          "indexed": false,
          "internalType": "uint256",
          "name": "amount",
          "type": "uint256"
        }
      ],
      "name": "Mint",
      "type": "event"
    },
    {
      "anonymous": false,
      "inputs": [
        {
          "indexed": false,
          "internalType": "address",
          "name": "sender",
          "type": "address"
        },
        {
          "indexed": false,
          "internalType": "address",
          "name": "receiver",
          "type": "address"
        },
        {
          "indexed": false,
          "internalType": "uint256",
          "name": "amount",
          "type": "uint256"
        }
      ],
      "name": "Transcation",
      "type": "event"
    },
    {
      "anonymous": false,
      "inputs": [
        {
          "indexed": true,
          "internalType": "address",
          "name": "sender",
          "type": "address"
        },
        {
          "indexed": false,
          "internalType": "uint256",
          "name": "amount",
          "type": "uint256"
        }
      ],
      "name": "TransferReceived",
      "type": "event"
    },
    {
      "anonymous": false,
      "inputs": [
        {
          "indexed": true,
          "internalType": "address",
          "name": "recipient",
          "type": "address"
        },
        {
          "indexed": false,
          "internalType": "uint256",
          "name": "amount",
          "type": "uint256"
        },
        {
          "indexed": false,
          "internalType": "string",
          "name": "message",
          "type": "string"
        }
      ],
      "name": "TransferSent",
      "type": "event"
    },
    {
      "anonymous": false,
      "inputs": [
        {
          "indexed": false,
          "internalType": "uint256",
          "name": "id",
          "type": "uint256"
        },
        {
          "indexed": false,
          "internalType": "address",
          "name": "author",
          "type": "address"
        },
        {
          "indexed": false,
          "internalType": "string",
          "name": "content",
          "type": "string"
        },
        {
          "indexed": false,
          "internalType": "uint256",
          "name": "timestamp",
          "type": "uint256"
        }
      ],
      "name": "messageCreatedEvent",
      "type": "event"
    },
    {
      "anonymous": false,
      "inputs": [
        {
          "indexed": false,
          "internalType": "address",
          "name": "liker",
          "type": "address"
        },
        {
          "indexed": false,
          "internalType": "address",
          "name": "tweetAuthor",
          "type": "address"
        },
        {
          "indexed": false,
          "internalType": "uint256",
          "name": "tweetId",
          "type": "uint256"
        },
        {
          "indexed": false,
          "internalType": "uint256",
          "name": "newLikeCount",
          "type": "uint256"
        }
      ],
      "name": "messageLikeEvent",
      "type": "event"
    },
    {
      "anonymous": false,
      "inputs": [
        {
          "indexed": false,
          "internalType": "address",
          "name": "unliker",
          "type": "address"
        },
        {
          "indexed": false,
          "internalType": "address",
          "name": "tweetAuthor",
          "type": "address"
        },
        {
          "indexed": false,
          "internalType": "uint256",
          "name": "tweetId",
          "type": "uint256"
        },
        {
          "indexed": false,
          "internalType": "uint256",
          "name": "newLikeCount",
          "type": "uint256"
        }
      ],
      "name": "messageUnlikeEvent",
      "type": "event"
    },
    {
      "inputs": [
        {
          "internalType": "string",
          "name": "_messages",
          "type": "string"
        }
      ],
      "name": "createMessage",
      "outputs": [],
      "stateMutability": "nonpayable",
      "type": "function"
    },
    {
      "inputs": [
        {
          "internalType": "address",
          "name": "_owner",
          "type": "address"
        }
      ],
      "name": "getAllMessages",
      "outputs": [
        {
          "components": [
            {
              "internalType": "uint256",
              "name": "id",
              "type": "uint256"
            },
            {
              "internalType": "address",
              "name": "author",
              "type": "address"
            },
            {
              "internalType": "string",
              "name": "content",
              "type": "string"
            },
            {
              "internalType": "uint256",
              "name": "timestamp",
              "type": "uint256"
            },
            {
              "internalType": "uint256",
              "name": "likes",
              "type": "uint256"
            }
          ],
          "internalType": "struct SmartContract.Messages[]",
          "name": "",
          "type": "tuple[]"
        }
      ],
      "stateMutability": "view",
      "type": "function"
    },
    {
      "inputs": [
        {
          "internalType": "uint16",
          "name": "_i",
          "type": "uint16"
        }
      ],
      "name": "getSenderMessages",
      "outputs": [
        {
          "components": [
            {
              "internalType": "uint256",
              "name": "id",
              "type": "uint256"
            },
            {
              "internalType": "address",
              "name": "author",
              "type": "address"
            },
            {
              "internalType": "string",
              "name": "content",
              "type": "string"
            },
            {
              "internalType": "uint256",
              "name": "timestamp",
              "type": "uint256"
            },
            {
              "internalType": "uint256",
              "name": "likes",
              "type": "uint256"
            }
          ],
          "internalType": "struct SmartContract.Messages",
          "name": "",
          "type": "tuple"
        }
      ],
      "stateMutability": "view",
      "type": "function"
    },
    {
      "inputs": [
        {
          "internalType": "address",
          "name": "author",
          "type": "address"
        },
        {
          "internalType": "uint256",
          "name": "_message_number",
          "type": "uint256"
        }
      ],
      "name": "likeMessage",
      "outputs": [],
      "stateMutability": "nonpayable",
      "type": "function"
    },
    {
      "inputs": [
        {
          "internalType": "address",
          "name": "",
          "type": "address"
        },
        {
          "internalType": "uint256",
          "name": "",
          "type": "uint256"
        }
      ],
      "name": "messages",
      "outputs": [
        {
          "internalType": "uint256",
          "name": "id",
          "type": "uint256"
        },
        {
          "internalType": "address",
          "name": "author",
          "type": "address"
        },
        {
          "internalType": "string",
          "name": "content",
          "type": "string"
        },
        {
          "internalType": "uint256",
          "name": "timestamp",
          "type": "uint256"
        },
        {
          "internalType": "uint256",
          "name": "likes",
          "type": "uint256"
        }
      ],
      "stateMutability": "view",
      "type": "function"
    },
    {
      "inputs": [],
      "name": "owner",
      "outputs": [
        {
          "internalType": "address payable",
          "name": "",
          "type": "address"
        }
      ],
      "stateMutability": "view",
      "type": "function"
    },
    {
      "inputs": [
        {
          "internalType": "address payable",
          "name": "_recipient",
          "type": "address"
        },
        {
          "internalType": "string",
          "name": "_message",
          "type": "string"
        }
      ],
      "name": "transferEth",
      "outputs": [],
      "stateMutability": "payable",
      "type": "function"
    },
    {
      "inputs": [
        {
          "internalType": "address",
          "name": "author",
          "type": "address"
        },
        {
          "internalType": "uint256",
          "name": "_message_number",
          "type": "uint256"
        }
      ],
      "name": "unLikeMessage",
      "outputs": [],
      "stateMutability": "nonpayable",
      "type": "function"
    },
    {
      "stateMutability": "payable",
      "type": "receive"
    }
  ],
  "bytecode": "0x6080604052348015600f57600080fd5b50336000806101000a81548173ffffffffffffffffffffffffffffffffffffffff021916908373ffffffffffffffffffffffffffffffffffffffff16021790555060008054906101000a900473ffffffffffffffffffffffffffffffffffffffff1673ffffffffffffffffffffffffffffffffffffffff167fbad9c536aeab214bd62c78cc39018cff9fe81815d763bd829e24a3b171af6a8360405160405180910390a2611a33806100c26000396000f3fe60806040526004361061007f5760003560e01c806347e7c75e1161004e57806347e7c75e146101845780635c21a953146101ad5780638da5cb5b146101ea578063c45d9bea14610215576100d4565b8063198a2de9146100d957806329b2ec6414610102578063301b5b101461013f57806347c9132314610168576100d4565b366100d4573373ffffffffffffffffffffffffffffffffffffffff167ff1b03f708b9c39f453fe3f0cef84164c7d6f7df836df0796e1e9c2bce6ee397e346040516100ca9190610cbd565b60405180910390a2005b600080fd5b3480156100e557600080fd5b5061010060048036038101906100fb9190610e32565b610256565b005b34801561010e57600080fd5b5061012960048036038101906101249190610ed9565b610411565b60405161013691906110db565b60405180910390f35b34801561014b57600080fd5b5061016660048036038101906101619190611129565b610643565b005b610182600480360381019061017d91906111a7565b61075e565b005b34801561019057600080fd5b506101ab60048036038101906101a69190611129565b6108a2565b005b3480156101b957600080fd5b506101d460048036038101906101cf919061123d565b6109bd565b6040516101e191906112e0565b60405180910390f35b3480156101f657600080fd5b506101ff610b40565b60405161020c9190611311565b60405180910390f35b34801561022157600080fd5b5061023c60048036038101906102379190611129565b610b64565b60405161024d959493929190611385565b60405180910390f35b60006040518060a00160405280600160003373ffffffffffffffffffffffffffffffffffffffff1673ffffffffffffffffffffffffffffffffffffffff1681526020019081526020016000208054905081526020013373ffffffffffffffffffffffffffffffffffffffff16815260200183815260200142815260200160008152509050600160003373ffffffffffffffffffffffffffffffffffffffff1673ffffffffffffffffffffffffffffffffffffffff1681526020019081526020016000208190806001815401808255809150506001900390600052602060002090600502016000909190919091506000820151816000015560208201518160010160006101000a81548173ffffffffffffffffffffffffffffffffffffffff021916908373ffffffffffffffffffffffffffffffffffffffff16021790555060408201518160020190816103a991906115eb565b50606082015181600301556080820151816004015550507fba94f50c215ccf1a21952e51f41ca44408402485a471b02c24b4b73c1ef237ec816000015182602001518360400151846060015160405161040594939291906116bd565b60405180910390a15050565b606060008054906101000a900473ffffffffffffffffffffffffffffffffffffffff1673ffffffffffffffffffffffffffffffffffffffff163373ffffffffffffffffffffffffffffffffffffffff16146104a1576040517f08c379a000000000000000000000000000000000000000000000000000000000815260040161049890611755565b60405180910390fd5b600160008373ffffffffffffffffffffffffffffffffffffffff1673ffffffffffffffffffffffffffffffffffffffff168152602001908152602001600020805480602002602001604051908101604052809291908181526020016000905b8282101561063857838290600052602060002090600502016040518060a0016040529081600082015481526020016001820160009054906101000a900473ffffffffffffffffffffffffffffffffffffffff1673ffffffffffffffffffffffffffffffffffffffff1673ffffffffffffffffffffffffffffffffffffffff1681526020016002820180546105939061140e565b80601f01602080910402602001604051908101604052809291908181526020018280546105bf9061140e565b801561060c5780601f106105e15761010080835404028352916020019161060c565b820191906000526020600020905b8154815290600101906020018083116105ef57829003601f168201915b505050505081526020016003820154815260200160048201548152505081526020019060010190610500565b505050509050919050565b600160008373ffffffffffffffffffffffffffffffffffffffff1673ffffffffffffffffffffffffffffffffffffffff168152602001908152602001600020818154811061069457610693611775565b5b906000526020600020906005020160040160008154809291906106b6906117d3565b91905055507f7a0d9c986b197293bc70a6c7b5909b1546cff6d1819b0a070238a7ab146020f3338383600160008773ffffffffffffffffffffffffffffffffffffffff1673ffffffffffffffffffffffffffffffffffffffff16815260200190815260200160002085815481106107305761072f611775565b5b90600052602060002090600502016004015460405161075294939291906117fc565b60405180910390a15050565b600034116107a1576040517f08c379a0000000000000000000000000000000000000000000000000000000008152600401610798906118b3565b60405180910390fd5b60008273ffffffffffffffffffffffffffffffffffffffff16346040516107c790611904565b60006040518083038185875af1925050503d8060008114610804576040519150601f19603f3d011682016040523d82523d6000602084013e610809565b606091505b505090508061084d576040517f08c379a000000000000000000000000000000000000000000000000000000000815260040161084490611965565b60405180910390fd5b8273ffffffffffffffffffffffffffffffffffffffff167f4894554c2534973a418072f9760a01cd200037ebcf9ac63e371ec5a1ed0472523484604051610895929190611985565b60405180910390a2505050565b600160008373ffffffffffffffffffffffffffffffffffffffff1673ffffffffffffffffffffffffffffffffffffffff16815260200190815260200160002081815481106108f3576108f2611775565b5b90600052602060002090600502016004016000815480929190610915906119b5565b91905055507fe8aa87c2b136fa9a23f13c81d0354904ffc3523218978a9b58818738c81528cc338383600160008773ffffffffffffffffffffffffffffffffffffffff1673ffffffffffffffffffffffffffffffffffffffff168152602001908152602001600020858154811061098f5761098e611775565b5b9060005260206000209060050201600401546040516109b194939291906117fc565b60405180910390a15050565b6109c5610c5f565b600160003373ffffffffffffffffffffffffffffffffffffffff1673ffffffffffffffffffffffffffffffffffffffff1681526020019081526020016000208261ffff1681548110610a1a57610a19611775565b5b90600052602060002090600502016040518060a0016040529081600082015481526020016001820160009054906101000a900473ffffffffffffffffffffffffffffffffffffffff1673ffffffffffffffffffffffffffffffffffffffff1673ffffffffffffffffffffffffffffffffffffffff168152602001600282018054610aa39061140e565b80601f0160208091040260200160405190810160405280929190818152602001828054610acf9061140e565b8015610b1c5780601f10610af157610100808354040283529160200191610b1c565b820191906000526020600020905b815481529060010190602001808311610aff57829003601f168201915b50505050508152602001600382015481526020016004820154815250509050919050565b60008054906101000a900473ffffffffffffffffffffffffffffffffffffffff1681565b60016020528160005260406000208181548110610b8057600080fd5b9060005260206000209060050201600091509150508060000154908060010160009054906101000a900473ffffffffffffffffffffffffffffffffffffffff1690806002018054610bd09061140e565b80601f0160208091040260200160405190810160405280929190818152602001828054610bfc9061140e565b8015610c495780601f10610c1e57610100808354040283529160200191610c49565b820191906000526020600020905b815481529060010190602001808311610c2c57829003601f168201915b5050505050908060030154908060040154905085565b6040518060a0016040528060008152602001600073ffffffffffffffffffffffffffffffffffffffff1681526020016060815260200160008152602001600081525090565b6000819050919050565b610cb781610ca4565b82525050565b6000602082019050610cd26000830184610cae565b92915050565b6000604051905090565b600080fd5b600080fd5b600080fd5b600080fd5b6000601f19601f8301169050919050565b7f4e487b7100000000000000000000000000000000000000000000000000000000600052604160045260246000fd5b610d3f82610cf6565b810181811067ffffffffffffffff82111715610d5e57610d5d610d07565b5b80604052505050565b6000610d71610cd8565b9050610d7d8282610d36565b919050565b600067ffffffffffffffff821115610d9d57610d9c610d07565b5b610da682610cf6565b9050602081019050919050565b82818337600083830152505050565b6000610dd5610dd084610d82565b610d67565b905082815260208101848484011115610df157610df0610cf1565b5b610dfc848285610db3565b509392505050565b600082601f830112610e1957610e18610cec565b5b8135610e29848260208601610dc2565b91505092915050565b600060208284031215610e4857610e47610ce2565b5b600082013567ffffffffffffffff811115610e6657610e65610ce7565b5b610e7284828501610e04565b91505092915050565b600073ffffffffffffffffffffffffffffffffffffffff82169050919050565b6000610ea682610e7b565b9050919050565b610eb681610e9b565b8114610ec157600080fd5b50565b600081359050610ed381610ead565b92915050565b600060208284031215610eef57610eee610ce2565b5b6000610efd84828501610ec4565b91505092915050565b600081519050919050565b600082825260208201905092915050565b6000819050602082019050919050565b610f3b81610ca4565b82525050565b610f4a81610e9b565b82525050565b600081519050919050565b600082825260208201905092915050565b60005b83811015610f8a578082015181840152602081019050610f6f565b60008484015250505050565b6000610fa182610f50565b610fab8185610f5b565b9350610fbb818560208601610f6c565b610fc481610cf6565b840191505092915050565b600060a083016000830151610fe76000860182610f32565b506020830151610ffa6020860182610f41565b50604083015184820360408601526110128282610f96565b91505060608301516110276060860182610f32565b50608083015161103a6080860182610f32565b508091505092915050565b60006110518383610fcf565b905092915050565b6000602082019050919050565b600061107182610f06565b61107b8185610f11565b93508360208202850161108d85610f22565b8060005b858110156110c957848403895281516110aa8582611045565b94506110b583611059565b925060208a01995050600181019050611091565b50829750879550505050505092915050565b600060208201905081810360008301526110f58184611066565b905092915050565b61110681610ca4565b811461111157600080fd5b50565b600081359050611123816110fd565b92915050565b600080604083850312156111405761113f610ce2565b5b600061114e85828601610ec4565b925050602061115f85828601611114565b9150509250929050565b600061117482610e7b565b9050919050565b61118481611169565b811461118f57600080fd5b50565b6000813590506111a18161117b565b92915050565b600080604083850312156111be576111bd610ce2565b5b60006111cc85828601611192565b925050602083013567ffffffffffffffff8111156111ed576111ec610ce7565b5b6111f985828601610e04565b9150509250929050565b600061ffff82169050919050565b61121a81611203565b811461122557600080fd5b50565b60008135905061123781611211565b92915050565b60006020828403121561125357611252610ce2565b5b600061126184828501611228565b91505092915050565b600060a0830160008301516112826000860182610f32565b5060208301516112956020860182610f41565b50604083015184820360408601526112ad8282610f96565b91505060608301516112c26060860182610f32565b5060808301516112d56080860182610f32565b508091505092915050565b600060208201905081810360008301526112fa818461126a565b905092915050565b61130b81611169565b82525050565b60006020820190506113266000830184611302565b92915050565b61133581610e9b565b82525050565b600082825260208201905092915050565b600061135782610f50565b611361818561133b565b9350611371818560208601610f6c565b61137a81610cf6565b840191505092915050565b600060a08201905061139a6000830188610cae565b6113a7602083018761132c565b81810360408301526113b9818661134c565b90506113c86060830185610cae565b6113d56080830184610cae565b9695505050505050565b7f4e487b7100000000000000000000000000000000000000000000000000000000600052602260045260246000fd5b6000600282049050600182168061142657607f821691505b602082108103611439576114386113df565b5b50919050565b60008190508160005260206000209050919050565b60006020601f8301049050919050565b600082821b905092915050565b6000600883026114a17fffffffffffffffffffffffffffffffffffffffffffffffffffffffffffffffff82611464565b6114ab8683611464565b95508019841693508086168417925050509392505050565b6000819050919050565b60006114e86114e36114de84610ca4565b6114c3565b610ca4565b9050919050565b6000819050919050565b611502836114cd565b61151661150e826114ef565b848454611471565b825550505050565b600090565b61152b61151e565b6115368184846114f9565b505050565b5b8181101561155a5761154f600082611523565b60018101905061153c565b5050565b601f82111561159f576115708161143f565b61157984611454565b81016020851015611588578190505b61159c61159485611454565b83018261153b565b50505b505050565b600082821c905092915050565b60006115c2600019846008026115a4565b1980831691505092915050565b60006115db83836115b1565b9150826002028217905092915050565b6115f482610f50565b67ffffffffffffffff81111561160d5761160c610d07565b5b611617825461140e565b61162282828561155e565b600060209050601f8311600181146116555760008415611643578287015190505b61164d85826115cf565b8655506116b5565b601f1984166116638661143f565b60005b8281101561168b57848901518255600182019150602085019450602081019050611666565b868310156116a857848901516116a4601f8916826115b1565b8355505b6001600288020188555050505b505050505050565b60006080820190506116d26000830187610cae565b6116df602083018661132c565b81810360408301526116f1818561134c565b90506117006060830184610cae565b95945050505050565b7f596f7520617265204e6f7420746865204f776e65722100000000000000000000600082015250565b600061173f60168361133b565b915061174a82611709565b602082019050919050565b6000602082019050818103600083015261176e81611732565b9050919050565b7f4e487b7100000000000000000000000000000000000000000000000000000000600052603260045260246000fd5b7f4e487b7100000000000000000000000000000000000000000000000000000000600052601160045260246000fd5b60006117de82610ca4565b9150600082036117f1576117f06117a4565b5b600182039050919050565b6000608082019050611811600083018761132c565b61181e602083018661132c565b61182b6040830185610cae565b6118386060830184610cae565b95945050505050565b7f5472616e7366657220616d6f756e74206d75737420626520677265617465722060008201527f7468616e20300000000000000000000000000000000000000000000000000000602082015250565b600061189d60268361133b565b91506118a882611841565b604082019050919050565b600060208201905081810360008301526118cc81611890565b9050919050565b600081905092915050565b50565b60006118ee6000836118d3565b91506118f9826118de565b600082019050919050565b600061190f826118e1565b9150819050919050565b7f5472616e73666572206661696c65640000000000000000000000000000000000600082015250565b600061194f600f8361133b565b915061195a82611919565b602082019050919050565b6000602082019050818103600083015261197e81611942565b9050919050565b600060408201905061199a6000830185610cae565b81810360208301526119ac818461134c565b90509392505050565b60006119c082610ca4565b91507fffffffffffffffffffffffffffffffffffffffffffffffffffffffffffffffff82036119f2576119f16117a4565b5b60018201905091905056fea2646970667358221220da822205b8519c3b92b135ddb897dddb5d3ee2fd77190cd049e6f0843eaecb7264736f6c634300081b0033",
  "linkReferences": {},
  "deployedLinkReferences": {}
}